S0140000435353455F50726F6A6563742E73726563AC
S11300000C940F010C942C010C942C010C942C01D5
S11300100C942C010C9469010C942C010C942C016B
S11300200C942C010C942C010C942C010C942C0198
S11300300C942C010C942C010C942C010C942C0188
S11300400C94A60D0C942C010C942C010C942C01F2
S11300500C941A0C0C94D80B0C942C010C942C01B9
S11300600C942C010C942C010C942C010C942C0158
S11300700C942C010C942C010C942C01596F7520B8
S11300806861766520256C75206C697665732072CD
S1130090656D61696E696E672E0053636F72653AB0
S11300A020256C750050726573732061206275742D
S11300B0746F6E20746F2073746172742061676151
S11300C0696E0047414D45204F56455200596F75A2
S11300D0206861766520256C75206C6976657320CF
S11300E072656D61696E696E672E0053636F726528
S11300F03A20256C750041737465726F69647300EE
S113010043535345323031302F37323031207072FF
S11301106F6A656374206279204D617474686577D1
S113012020427572746F6E0041737465726F6964F6
S113013073009D019A01960192018E018A01860144
S113014082017E017A010C02080204020002FC0111
S1130150F801F401F001ED01E901E501E101DC013F
S1130160D801D401D001CB01C701C301BE01BA013A
S1130170B501B001AB01A601A1016492927D6C921C
S1130180926D809EA0C17C92924DE4A2A29D1828FB
S113019048FF4492926D468A926342FE037C92A287
S11301A07D868A92A2C3E0100E10E1C6281028C7EB
S11301B0FC021C02FDF8040204F9FC0202FD80802A
S11301C0FE80816492924DFE9098677C828A7C03C3
S11301D0FE9090617C82827DFE2010FFFE403040C4
S11301E0FFFE020203FE1028C7040202FD82FE8302
S11301F0FE1010FF7C82925DFE909081FE929283AD
S1130200FE82827D7C828245FE92926D7E90907FFA
S11302101B5B324A001B5B25643B256448001124A8
S11302201FBECFEFD8E0DEBFCDBF11E0A0E0B1E04C
S1130230ECE8F7E202C005900D92A83DB107D9F7AA
S113024023E0A8EDB1E001C01D92A333B207E1F7AA
S11302500E941C0A0C94C4130C940000E8E6F0E01D
S1130260808182608083D99AECE6F0E080818F609F
S113027080831092D80108958091D80118163CF516
S11302808091D9016FB7F8949091D8019230B4F06D
S113029021E030E091E0F901E752FE4F4081F9019D
S11302A0E852FE4F40839F5F292F30E04091D801F0
S11302B0042E000C550B241735076CF39091D801CC
S11302C091509093D80166231CF4789408958FEF8D
S11302D008951F920F920FB60F9211242F933F93FC
S11302E04F935F936F937F938F939F93EF93FF93BA
S11302F043B14F7080E090E0642F70E02091D8010A
S1130300243004F59B01082E02C0359527950A94E4
S1130310E2F720FF17C02091DD0130E0082E02C073
S1130320359527950A94E2F720FD0CC0E091D80199
S113033021E02E0F2093D8010E2E000CFF0BE75264
S1130340FE4F8083019684309105C1F64093DD0110
S1130350FF91EF919F918F917F916F915F914F9159
S11303603F912F910F900FBE0F901F90189520E191
S1130370829FC00111246F70862B4091EE01042EE0
S1130380000C550B14161506C4F49091F40189174A
S113039049F090E00AC0F901EC50FE4F208182132D
S11303A004C001C090E0892F08959F5F292F30E099
S11303B02417350784F38FEF08958FEF08951F9363
S11303C0CF93DF93182F909108028FEF890F482F56
S11303D0082E000C550B292F092E000C330B2F5F10
S11303E03F4F24173507E4F0D8E0D91BC82F8830D5
S11303F028F4412F6D2F80E00E94BB0681E08C0F12
S113040090910802D150482F082E000C550B292F2B
S1130410092E000C330B2F5F3F4F2417350734F799
S113042067E0691B412F81E00E94BB06DF91CF91F9
S11304301F91089590E02091EE01022E000C330BE1
S1130440821793076CF4462FFC01EC50FE4F808119
S1130450982F92959F7067E0691B8F700E94BB066E
S11304600895CF9388230CF19091EE018917ECF451
S1130470C82F60E00E941A028C2FCC0F990B409178
S1130480EE01242F042E000C330B21503109821766
S1130490930744F4F901EC50FE4F2081FC01EC5029
S11304A0FE4F208341504093EE01CF91089590E098
S11304B02091F301022E000C330B821793076CF486
S11304C0462FFC01E151FE4F8081982F92959F7039
S11304D067E0691B8F700E94BB060895CF93882341
S11304E024F19091F301891704F5C82F60E00E946C
S11304F0570281E08C0F282F30E06091F301462FE2
S1130500062E000C550B2417350764F4F901E1514C
S1130510FE4F9081319790838F5F282F30E024170E
S11305203507A4F361506093F301CF9108954F927E
S11305305F926F927F928F929F92AF92BF92CF926F
S1130540DF92EF92FF92CF93DF9300D000D0CDB72C
S1130550DEB70E948F0D69837A838B839C830E940C
S1130560440789809A80AB80BC80750164012401B2
S1130570350188EE480E83E0581E611C711C36C09C
S11305800E949207C701B6010E947C0C0E948F0D45
S11305906B017C01D501C40186509F4FAF4FBF4F03
S11305A0C816D906EA06FB0619F480E00E94DF01AA
S11305B0D501C4018C509E4FAF4FBF4FC816D9060A
S11305C0EA06FB0619F48FE00E94DF01D501C4019D
S11305D082519D4FAF4FBF4FC816D906EA06FB069E
S11305E029F480EF0E94DF0146015701C414D504A9
S11305F0E604F70428F20E943F0769817A818B811F
S11306009C8163507109810991090E94170D6981C8
S11306107A818B819C810E949D0D0E943C010E94E5
S1130620D30B8FED0E94DF010F900F900F900F906E
S1130630DF91CF91FF90EF90DF90CF90BF90AF907C
S11306409F908F907F906F905F904F9008951F932D
S1130650CF93DF93C82F862F0E946E028C2F0E94A7
S11306603102DFE00E942E10DC01CB018770992754
S1130670AA27B078BB2354F40197A109B109886F64
S11306809F6FAF6FBF6F0196A11DB11DC82F0E9450
S11306902E10DC01CB0181709927AA27B078BB23E7
S11306A054F40197A109B1098E6F9F6FAF6FBF6FAB
S11306B00196A11DB11D1D2F181B612F8C2F0E94A7
S11306C0B7018F3F79F68091EE01E82F082E000CD8
S11306D0FF0BEC50FE4F90E1C99FB00111241F7035
S11306E0612B608391E0980F9093EE0160EF0E947C
S11306F01A0281E090E00E94300A64E070E082E037
S113070090E00E94530D0E94450A9F938F937F931C
S11307106F938AE990E09F938F930E94C3100F9088
S11307200F900F900F900F900F90DF91CF911F912A
S113073008954F925F926F927F92AF92BF92CF9241
S1130740DF92EF92FF920F931F93CF93DF9383E097
S1130750809308021092F3011092EE0104EF11E06D
S11307600F2EF8E0AF2EF2E0BF2EF02D0F2EFDE09D
S11307704F2E512C612C712CF02D0E942E106B01E8
S11307807C0127E0C222DD24EE2420E8F222FF20AF
S113079084F481E0C81AD108E108F108E8EFCE2A10
S11307A0DD24DA94ED2CFE2CFFEFCF1ADF0AEF0ADA
S11307B0FF0A0E942E10A30192010E94A10FC3E020
S11307C0C60F6C2F8C2D0E94B7018F3FB1F620E12C
S11307D0C29EB0011124CF70C62BF801C1938F01C2
S11307E08091EE018F5F8093EE01EA15FB0529F6F7
S11307F00E9405078FED0E94DF018091EE0118161B
S113080084F4C0E060EF8C2F0E941A02CF5F2C2F7B
S113081030E08091EE01082E000C990B281739075F
S11308208CF38091F301181684F4C0E06FE08C2FF0
S11308300E945702CF5F2C2F30E08091F301082EE5
S1130840000C990B281739078CF3DF91CF911F9176
S11308500F91FF90EF90DF90CF90BF90AF907F907B
S11308606F905F904F900895CF93C091F301C4307F
S11308700CF043C08091080290E1899F90011124FB
S1130880422F42606C2F0C2E000C770B16161706A5
S1130890B4F49091EF01941791F190E00AC0F9013A
S11308A0E151FE4F2081421304C09F3F41F080E09C
S11308B027C09F5F292F30E02617370784F391E084
S11308C09C0F9093F301EC2FF0E0E151FE4F90E187
S11308D08902900111242260208362E00E94B70102
S11308E08F3F29F06C2F0E94270381E009C06FE03D
S11308F08C2F0E94570281E003C080E001C080E099
S1130900CF910895EF92FF921F93CF93DF9310E05E
S113091031C0E12E012E000CFF08F701E151FE4F1A
S11309208081C82FCF70CF5FC03121F4812F0E9406
S11309306E0220C0D82FD295DF706C2F8D2F0E94AD
S1130940B7018F3F21F0612F0E94270313C060E09D
S1130950812F0E945702F701E151FE4F20E1D29FFF
S1130960C0011124CF70C82BC0836FE0812F0E9477
S113097057021F5F8091F30118175CF2DF91CF914A
S11309801F91FF90EF9008950E94360721E0672B96
S1130990682B692B09F020E0822F0895BF92CF9233
S11309A0DF92EF92FF920F931F93CF93DF930E94F6
S11309B03607672B682B692B21F08FEF9FEF0E947E
S11309C01D0788B1817088B9BB24B39407E010E097
S11309D0C1E0D0E010C028B1C8018B199109B7FC5F
S11309E09395AE0102C0440F551F8A95E2F7CA01E0
S11309F0822B88B9B3940E943607DC01CB0101969F
S1130A00A11DB11DCB2C0B2C000CDD08EE08FF083A
S1130A10C816D906EA06FB06F0F266E070E082E04A
S1130A2090E00E94530D0E9436079F938F937F930B
S1130A306F938CE790E09F938F930E94C3100F9065
S1130A400F900F900F900F900F90DF91CF911F9107
S1130A500F91FF90EF90DF90CF90BF900895CF93C8
S1130A60C82F80E00E94DF01C11108C080910802F4
S1130A70882371F08150809308020FC0C13041F483
S1130A8080910802873021F08F5F8093080205C0AF
S1130A908FED0E94DF0180E034C0C091080261E064
S1130AA08C2F0E94B7018F3F69F460E08C0F0E9485
S1130AB0B7018F3F39F460E081E08C0F0E94B701E9
S1130AC08F3FD9F00E94CE0461E0809108020E9419
S1130AD0B7010E9431028091080260E081500E94B7
S1130AE0B7010E9431028091080260E08F5F0E948A
S1130AF0B7010E9431020E9497028FED0E94DF012C
S1130B0081E0CF910895AF92BF92CF92DF92FF928E
S1130B101F93CF93DF93D12C0F2EFFEEAF2EF1E076
S1130B20BF2EF02D60C0CD2D0D2C000CDD0BFE0171
S1130B30EC50FE4F8081F82EF694F694F694F694D9
S1130B40182F1F70CC24CA94C10E6C2D8F2D0E94B7
S1130B50B7018F3F09F41C2DEF2DF0E0CF018295F2
S1130B609295907F9827807F9827912F9F70F92ED8
S1130B70F82A4091F301042E000C550B14161506A7
S1130B80DCF4D5018C918F1591F060E009C0D90196
S1130B90A151BE4F9C91F91203C06F3F49F40CC0A0
S1130BA06F5F262F30E0241735078CF305C060E013
S1130BB08D2D0E94270317C0123018F5809108026A
S1130BC0082E000C990BE817F90799F0111119C0B8
S1130BD09C0121503109E217F30759F00196E817F7
S1130BE0F90779F406C08091EE01D8160CF49BCF76
S1130BF015C00E94CE048D2D0E9431020E949702DE
S1130C00F2CF60E08D2D0E941A02CC50DE4FF882A4
S1130C1060EF8D2D0E941A02D394E5CFDF91CF911E
S1130C201F91FF90DF90CF90BF90AF900895CF9227
S1130C30DF92EF92FF92CF936B017C01C42F8091DE
S1130C40DE019091DF01A091E001B091E1018C59A6
S1130C509F4FAF4FBF4F8C159D05AE05BF0578F470
S1130C60413009F05DC00E94FE06C092DE01D092C0
S1130C70DF01E092E001F092E10181E072C04230D4
S1130C8009F052C060EF8BE291E00E944E0A81E0CD
S1130C9068C00E945D0A882369F0C33009F04FC020
S1130CA0C092DE01D092DF01E092E001F092E10116
S1130CB081E057C08091DE019091DF01A091E001B5
S1130CC0B091E1018C599F4FAF4FBF4F8C159D05DB
S1130CD0AE05BF0568F5C33079F5C092DE01D09248
S1130CE0DF01E092E001F092E10181E03AC060EFBF
S1130CF08AE391E00E944E0A81E033C00E945D0ABB
S1130D00882379F1C53051F4C092DE01D092DF011D
S1130D10E092E001F092E10181E023C080E021C093
S1130D20423009F0B6CFAECF443009F380E019C0A9
S1130D30C430E9F280E015C0C43001F7D8CF809107
S1130D40DE019091DF01A091E001B091E1018C59A5
S1130D509F4FAF4FBF4F8C159D05AE05BF0560F388
S1130D60E7CFCF91FF90EF90DF90CF90089580E888
S1130D700E94250D08951F93CF93DF938031B0F423
S1130D806830A0F4142FC62FD82F81E00E944D0D97
S1130D906C2F677080E1689F900111248D2F8F70F4
S1130DA0822B0E944D0D812F0E944D0DDF91CF911A
S1130DB01F9108950F931F93CF93DF93803190F485
S1130DC08B01C82F83E00E944D0D8C2F8F700E94E1
S1130DD04D0DE801085F1F4F89910E944D0DC0170A
S1130DE0D107D1F7DF91CF911F910F91089584E03E
S1130DF00E944D0D82E00E944D0D089584E00E94F2
S1130E004D0D81E00E944D0D08958FE00E944D0D1F
S1130E10089588B1817088B9449A459A469A479A48
S1130E2084E090E0A0E0B0E08093090290930A028D
S1130E30A0930B02B0930C020895092E000CAA0B88
S1130E40BB0B4091090250910A0260910B02709110
S1130E500C02840F951FA61FB71F8093090290935D
S1130E600A02A0930B02B0930C0208956091090248
S1130E7070910A0280910B0290910C0208951092D5
S1130E8080001092810008954A9B07C0549A83E21F
S1130E90809380008AE18093810008958F929F92CD
S1130EA0AF92BF92CF92DF92EF92FF924A015B0121
S1130EB09C0140E050E060E472E48FE090E00E9426
S1130EC07F0F69017A01B90180E090E00E94700E01
S1130ED0A50194010E94FE0E20E030E048EC52E4AB
S1130EE00E94CF0D0E94410E21E0C21AD108D09277
S1130EF08900C09288006115710529F410928B0055
S1130F0010928A0006C06150710970938B0060933F
S1130F108A00FF90EF90DF90CF90BF90AF909F90AA
S1130F208F9008950E942E1027E030E040E050E0BA
S1130F300E94A10F660F771FFB01EC5FFE4F40E09C
S1130F4050E060E070E4808191810E944E07089532
S1130F500E94B7060E942E0140E060E07BE480E03E
S1130F6090E00E94850B0E946D0D0E946D0C789498
S1130F7008957F928F929F92AF92BF92CF92DF9209
S1130F80EF92FF920F931F93CF93DF930E948F0DE5
S1130F906B017C010E94640D6AE070E08AE090E0DD
S1130FA00E94530D88E291E09F938F930E94C31097
S1130FB06CE070E08AE090E00E94530D80E091E0E4
S1130FC09F938F930E94C3100E9405070F900F9068
S1130FD00F900F90712C0EE110E060EF8DE391E023
S1130FE00E944E0A40C00E948F0D4B015C01C72D28
S1130FF0D0E0FE01EE0FFF1FE456FE4F8081918189
S1131000A7019601280F391F411D511D8216930611
S1131010A406B506C8F00E944407FE01EE0FFF1FA8
S1131020E05AFE4F8081918140E050E060E07FE330
S1131030845D9E4F0E944E07CE010196B8010E9426
S11310406B0F782E750164013FEF40E752E0315099
S113105040405040E1F700C000000E943F070E945A
S11310603C018F3F29F40E945D0A8111BCCFB5CFAA
S1131070DF91CF911F910F91FF90EF90DF90CF9070
S1131080BF90AF909F908F907F9008950E94990396
S11310900E94640D62E070E082E090E00E94530DD3
S11310A086EF90E09F938F930E94C3100E94270ABB
S11310B064E070E082E090E00E94530D0E94450AD3
S11310C09F938F937F936F938BEE90E09F938F9377
S11310D00E94C3100E94090766E070E082E090E07D
S11310E00E94530D0E9436079F938F937F936F93B3
S11310F08DEC90E09F938F930E94C3100E943C015B
S11311000E94D30B8DB79EB70E960FB6F8949EBF70
S11311100FBE8DBF08952F923F924F925F926F92B0
S11311207F928F929F92AF92BF92CF92DF92EF9273
S1131130FF920F931F93CF93DF9300D000D01F92A1
S1131140CDB7DEB70E948F0D2B013C014B015C0132
S113115010E0198233243A946894222421F8D1C0EF
S11311600E943C01082F8F3F09F0D6C00E94CC0B8F
S1131170882309F47BC0EDE2F3E0808191810E9431
S11311808510F981F11105C08B3109F4C0C0932D8C
S11311900DC02981213029F48B3509F4BBC0932D6E
S11311A005C03981323029F4982F832D943411F4F9
S11311B008C0932D282F2F7D2C3409F0B3C0198239
S11311C001C0198280E00E942F05882309F44EC0D3
S11311D00E94440740E050E060E070E488E592E05B
S11311E00E944E079DC0803291F4198201C0198279
S11311F00E9434048823D1F10E94440740E050E067
S113120060E070E48EEE91E00E944E0789C019827E
S1131210013061F1923451F1002329F0933419F033
S11312208F7D823581F481E00E942F058823F1F0BF
S11312300E94440740E050E060E070E488E592E0FA
S11312400E944E076DC0803589F40E94880D0E946B
S1131250CC0B8823E1F3EDE2F3E0808191810E94DD
S113126085108F7D803599F70E94880D111103C078
S11312700E943F0701C011500E948F0D6B017C0139
S11312800E94C40481110FC0D301C20188539F4F2F
S1131290AF4FBF4FC816D906EA06FB0620F00E94DE
S11312A08204260137010E94450ADC01CB019C011E
S11312B0AD01220F331F441F551F220F331F441F3C
S11312C0551F280F391F4A1F5B1FD501C4018851C0
S11312D09C4FAF4FBF4F821B930BA40BB50BC8168B
S11312E0D906EA06FB0620F00E9483054601570151
S11312F00E94450ACB010E94200DC701B6010E943D
S11313007C0C0E94C404882309F42ACF15C031E060
S11313103983ACCF2982AACF833009F453CF06C0D6
S11313201FEFA9CF913409F05ECF61CF823009F469
S11313305FCF932D832D6CCF0F900F900F900F9054
S11313400F90DF91CF911F910F91FF90EF90DF905D
S1131350CF90BF90AF909F908F907F906F905F9051
S11313604F903F902F900895CF92DF92EF92FF928B
S1131370CF930E943F070E948F0D41E00E94170601
S1131380C82F6EE070E08AE090E00E94530D83EC79
S113139090E09F938F930E94C3106FE070E08AE007
S11313A090E00E94530D85EA90E09F938F930E94F2
S11313B0C3100F900F900F900F9032C00E948F0DAA
S11313C06B017C010E947C0CC03138F441E0C70100
S11313D0B6010E941706C80F23C0C03139F442E099
S11313E0C701B6010E941706C80F1AC0C43638F4E4
S11313F043E0C701B6010E941706C80F11C0C436E6
S113140039F444E0C701B6010E941706C80F08C0AA
S1131410CE3630F445E0C701B6010E941706C80F66
S11314200E943C018F3F51F20E940907CF91FF9027
S1131430EF90DF90CF9008950E94A8070E94B9070B
S11314400E9446080E948B080E94B409F9CF1092AA
S11314500D0210920E0210920F02109210020895C3
S113146040910D0250910E0260910F027091100292
S1131470480F591F611D711D40930D0250930E02B8
S113148060930F0270931002089560910D027091A1
S11314900E0280910F029091100208956093120140
S11314A09093E6018093E5011092E8011092E70120
S11314B01092E4011092E30108950F931F93CF93C8
S11314C0DF93CDB7DEB728970FB6F894DEBF0FBE13
S11314D0CDBFE091E701F091E801309781F01491DC
S11314E010FF06C01092E8011092E70100E06BC003
S11314F03196F093E801E093E70100E064C0E091E5
S1131500E301F091E401309709F449C0CF01019659
S11315109093E4018093E301E081E1110AC0109209
S1131520E4011092E30180E18093E20100E010E025
S11315304AC08FE98E0F8A3170F4F0E0EE0FFF1F7E
S1131540EC57FF4F859194919093E8018093E701C4
S113155000E010E038C08FEB8E0F8A3170F4F0E0B9
S1131560EE0FFF1FEC53FF4F859194919093E80188
S11315708093E70100E010E026C080ED8E0F8A30F2
S113158000F5F0E0EE0FFF1FEE52FF4F85919491AE
S11315909093E8018093E70100E010E014C080918B
S11315A0E5019091E60101E0009709F000E09093D5
S11315B0E4018093E3011092E6011092E50110E04A
S11315C002C000E010E00E94F70620911201FE0123
S11315D03896CE010196112314F4208301C01082A1
S11315E0110F3197E817F907B1F71982BE016F5F40
S11315F07F4F8FE00E94DA068091E201882389F010
S113160081508093E201002311F0882311F090E0CF
S113161003C091E001C091E081E0992329F080E0CA
S113162003C00023A1F3F7CF28960FB6F894DEBFCA
S11316300FBECDBFDF91CF911F910F910895CF932E
S1131640C82F8A3019F48DE00E941F0B9FB7907841
S113165002C0992329F1809112028F3FD1F3F894AB
S1131660E091110281E08E0F80931102F0E0ED5EB3
S1131670FD4FC083809112028F5F8093120280918C
S113168011028F3F11F410921102E1ECF0E080811D
S113169080628083992339F0789480E090E005C0DB
S11316A081E090E002C080E090E0CF9108958091C5
S11316B024038823E1F32FB72078F8948091120350
S11316C03091240390E0831B91095AF4E0911203B2
S11316D080912403F0E0E81BF109ED5DFC4F80816B
S11316E00AC0E091120380912403F0E0E81BF109A1
S11316F0ED5EFC4F808190912403915090932403DC
S1131700222309F0789490E0089510921102109227
S11317101202109212031092240310922303409396
S1131720E901DC01CB01880F991FAA1FBB1F880F99
S1131730991FAA1FBB1F9C01AD01220F331F441F19
S1131740551F60E072E18AE790E00E94A10FBA01A0
S1131750A9014F5F5F4F6F4F7F4FDB01CA011AF43E
S11317600196A11DB11DB595A795979587950197EC
S11317709093C5008093C400E1ECF0E088E180839D
S1131780808180688083EDE2F3E083E191E09383DC
S113179082839183808308959091240381E0911141
S11317A001C080E00895109212031092240308955A
S11317B01F920F920FB60F9211242F938F939F9322
S11317C0EF93FF9380911202882329F180911102F3
S11317D02091120290E0821B91095AF4E0911102C7
S11317E080911202F0E0E81BF109EE5EFC4F90815B
S11317F00AC0E091110280911202F0E0E81BF109A5
S1131800ED5EFD4F9081809112028150809312020F
S11318109093C60005C0E1ECF0E080818F7D808369
S1131820FF91EF919F918F912F910F900FBE0F9089
S11318301F9018951F920F920FB60F9211242F9399
S11318403F934F935F936F937F938F939F93AF9344
S1131850BF93CF93EF93FF93C091C6008091E901AA
S1131860882349F0809112028F3F29F060E070E0F4
S11318708C2F0E941F0B80912403803120F081E083
S11318808093230318C0CD3009F4CAE0E091120319
S113189081E08E0F80931203F0E0ED5EFC4FC08375
S11318A0809124038F5F80932403809112038031FD
S11318B011F410921203FF91EF91CF91BF91AF9168
S11318C09F918F917F916F915F914F913F912F9154
S11318D00F900FBE0F901F9018958FEF81B981EF75
S11318E087B91092290310922503109226031092AF
S11318F027031092280308950F931F930091250343
S11319001091260320912703309128030D5F1F4F68
S11319102F4F3F4F061717072807390708F084C0D1
S113192060932503709326038093270390932803E1
S113193040912A0350912B034A30510500F510922F
S113194029039A01ADECBCEC0E94C00F96958795D3
S113195096958795969587959C01220F331F880F3E
S1131960991F880F991F880F991F820F931F481B77
S1131970590BFA01EF5DFE4F808182B94FC09091FF
S1131980290381E0891B8093290380912903811114
S11319901EC09A01ADECBCEC0E94C00F96958795D1
S11319A096958795969587959C01220F331F880FEE
S11319B0991F880F991F880F991F820F931F481B27
S11319C0590BFA01EF5DFE4F808182B927C09A015D
S11319D0ADECBCEC0E94C00FAC01569547955695F2
S11319E04795569547959A010E94C00F96958795FD
S11319F096958795969587959C01220F331F880F9E
S1131A00991F880F991F880F991F820F931F481BD6
S1131A10590BFA01EF5DFE4F808182B988B1909134
S1131A2029038E7F892B88B91F910F9108956093A4
S1131A302503709326038093270390932803089526
S1131A4090932B0380932A03089594B1906B94B9D7
S1131A502C9A90E59CBD883021F0803211F08230C0
S1131A6019F491E09DBD01C01DBC803269F028F4D9
S1131A70883071F0803161F00EC0803429F08038F4
S1131A8051F48CB581608CBD8CB582608CBD03C073
S1131A908CB581608CBD2C9808958EBD0DB407FE65
S1131AA0FDCF8EB508959F938F937F936F9385E1B8
S1131AB092E09F938F930E94C3100F900F900F900A
S1131AC00F900F900F90089580E192E09F938F9371
S1131AD00E94C3100F900F9008951092EA01109283
S1131AE0EB011092EC011092ED0181E080932C0344
S1131AF016BC8CE787BD82E084BD83E085BDEEE63D
S1131B00F0E080818260808385B3827085BB089514
S1131B1090912C0381E0891B80932C0308952FB7A7
S1131B20F8946091EA017091EB018091EC0190913D
S1131B30ED0122230CF4789408956093EA017093E4
S1131B40EB018093EC019093ED0108951F920F92A5
S1131B500FB60F9211248F939F93AF93BF938091ED
S1131B602C03882399F08091EA019091EB01A091D4
S1131B70EC01B091ED010196A11DB11D8093EA0124
S1131B809093EB01A093EC01B093ED01BF91AF9161
S1131B909F918F910F900FBE0F901F9018950E94E8
S1131BA0E30D0C94C40E0E94BD0E58F00E94B60EB4
S1131BB040F029F45F3F29F00C94AD0E51110C94C0
S1131BC0F80E0C94B30E0E94D50E68F39923B1F36A
S1131BD0552391F3951B550BBB27AA27621773074F
S1131BE0840738F09F5F5F4F220F331F441FAA1FE3
S1131BF0A9F335D00E2E3AF0E0E832D0915050409F
S1131C00E695001CCAF72BD0FE2F29D0660F771F4C
S1131C10881FBB1F261737074807AB07B0E809F032
S1131C20BB0B802DBF01FF2793585F4F3AF09E3FB7
S1131C30510578F00C94AD0E0C94F80E5F3FE4F36C
S1131C40983ED4F3869577956795B795F7959F5FFA
S1131C50C9F7880F911D9695879597F90895E1E046
S1131C60660F771F881FBB1F621773078407BA07A5
S1131C7020F0621B730B840BBA0BEE1F88F7E09500
S1131C8008950E94DD0E88F09F5798F0B92F992788
S1131C90B751B0F0E1F0660F771F881F991F1AF053
S1131CA0BA95C9F714C0B13091F00E94F70EB1E0B3
S1131CB008950C94F70E672F782F8827B85F39F0B2
S1131CC0B93FCCF3869577956795B395D9F73EF4EC
S1131CD090958095709561957F4F8F4F9F4F089594
S1131CE0E89409C097FB3EF49095809570956195B2
S1131CF07F4F8F4F9F4F9923A9F0F92F96E9BB2768
S1131D009395F695879577956795B795F111F8CFE3
S1131D10FAF4BB0F11F460FF1BC06F5F7F4F8F4F4E
S1131D209F4F16C0882311F096E911C0772321F044
S1131D309EE8872F762F05C0662371F096E8862FDC
S1131D4070E060E02AF09A95660F771F881FDAF733
S1131D50880F9695879597F9089597F99F6780E876
S1131D6070E060E008959FEF80EC089500240A94E9
S1131D701616170618060906089500240A94121662
S1131D801306140605060895092E0394000C11F495
S1131D90882352F0BB0F40F4BF2B11F460FF04C042
S1131DA06F5F7F4F8F4F9F4F089557FD9058440F9B
S1131DB0551F59F05F3F71F04795880F97FB991FA6
S1131DC061F09F3F79F08795089512161306140663
S1131DD0551FF2CF4695F1DF08C0161617061806F0
S1131DE0991FF1CF86957105610508940895E894CB
S1131DF0BB2766277727CB0197F908950E94110F17
S1131E000C94C40E0E94B60E38F00E94BD0E20F051
S1131E10952311F00C94AD0E0C94B30E11240C9474
S1131E20F80E0E94D50E70F3959FC1F3950F50E004
S1131E30551F629FF001729FBB27F00DB11D639F78
S1131E40AA27F00DB11DAA1F649F6627B00DA11D1E
S1131E50661F829F2227B00DA11D621F739FB00DC4
S1131E60A11D621F839FA00D611D221F749F332734
S1131E70A00D611D231F849F600D211D822F762FCD
S1131E806A2F11249F5750409AF0F1F088234AF0AA
S1131E90EE0FFF1FBB1F661F771F881F9150504016
S1131EA0A9F79E3F510580F00C94AD0E0C94F80EEA
S1131EB05F3FE4F3983ED4F3869577956795B7959D
S1131EC0F795E7959F5FC1F7FE2B880F911D9695B7
S1131ED0879597F9089597FB072E16F4009407D079
S1131EE077FD09D00E94CF0F07FC05D03EF49095F2
S1131EF081959F4F0895709561957F4F0895A1E254
S1131F001A2EAA1BBB1BFD010DC0AA1FBB1FEE1F6F
S1131F10FF1FA217B307E407F50720F0A21BB30BBA
S1131F20E40BF50B661F771F881F991F1A9469F736
S1131F3060957095809590959B01AC01BD01CF0192
S1131F400895052E97FB1EF400940E94B80F57FDC8
S1131F5007D00E947F0F07FC03D04EF40C94B80FF7
S1131F6050954095309521953F4F4F4F5F4F0895C1
S1131F7090958095709561957F4F8F4F9F4F0895F1
S1131F80A29FB001B39FC001A39F700D811D1124B6
S1131F90911DB29F700D811D1124911D0895AA1BDE
S1131FA0BB1B51E107C0AA1FBB1FA617B70710F040
S1131FB0A61BB70B881F991F5A95A9F78095909572
S1131FC0BC01CD0108958F929F92AF92BF92CF92A0
S1131FD0DF92EF92FF92CF93DF93EC0168817981D6
S1131FE08A819B81611571058105910521F464E263
S1131FF079ED8BE597E02DE133EF41E050E00E946D
S1132000A10F49015A019B01AC01A7EAB1E40E9466
S11320107A136B017C01ACEEB4EFA50194010E942C
S11320208813DC01CB018C0D9D1DAE1DBF1DB7FFB8
S113203003C00197A109B04888839983AA83BB830D
S1132040BC01CD019F77DF91CF91FF90EF90DF909E
S1132050CF90BF90AF909F908F9008958F929F9252
S1132060AF92BF92CF92DF92EF92FF926091000104
S11320707091010180910201909103016115710534
S11320808105910521F464E279ED8BE597E02DE17A
S113209033EF41E050E00E94A10F49015A019B0136
S11320A0AC01A7EAB1E40E947A136B017C01ACEEA7
S11320B0B4EFA50194010E948813DC01CB018C0DBF
S11320C09D1DAE1DBF1DB7FF03C00197A109B048F8
S11320D08093000190930101A0930201B093030146
S11320E0BC01CD019F77FF90EF90DF90CF90BF9020
S11320F0AF909F908F9008956093000170930101B9
S113210080930201909303010895CF93DF93EC0130
S11321102B8120FF33C026FF0AC02F7B2B838E81A7
S11321209F8101969F838E838A8190E029C022FF3C
S11321300FC0E881F9818081082E000C990B00976B
S113214019F420622B831AC03196F983E8830EC0F8
S1132150EA85FB85099597FF09C02B81019611F04B
S113216080E201C080E1822B8B8308C02E813F81F5
S11321702F5F3F4F3F832E83992702C08FEF9FEF3E
S1132180DF91CF910895A0E0B0E0E9ECF0E10C9488
S11321909B13AE01495F5F4FDA016D917D91AD01F3
S11321A00DE213E0F80182819381DC0113962C91F6
S11321B01397286013962C930E94E910D801129665
S11321C0ED91FC9113972381277F2383E4E00C9402
S11321D0B713ABE0B0E0EFEEF0E10C948D136C01BB
S11321E07B018A01FC0117821682838181FFCCC1A5
S11321F0CE0101963C01F6019381F70193FD85918F
S113220093FF81917F01882309F4BAC1853239F49F
S113221093FD859193FF81917F01853229F4B60165
S113222090E00E94E012E7CF912C212C312CFFE1A9
S1132230F315D8F08B3279F038F4803279F08332A8
S1132240A1F4232D20611DC08D3261F0803369F427
S1132250232D216016C0832D8260382EE32DE46087
S11322603E2E2AC0F32DF8601DC037FC2DC020ED92
S1132270280F2A3040F08E32B9F436FC81C1232D68
S11322802064322E19C036FE06C08AE0989E200DC6
S11322901124922E11C0EAE02E9E200D1124222E2C
S11322A0F32DF0623F2E08C08C3621F4832D806814
S11322B0382E02C0883641F4F70193FD859193FFCF
S11322C081917F018111B3CF982F9F7D95549330D5
S11322D028F40C5F1F4F9FE399830DC0833631F0C0
S11322E0833771F0833509F059C021C0F80180812A
S11322F089830E5F1F4F88248394912C530113C04C
S11323002801F2E04F0E511CF801A080B18036FE86
S113231003C0692D70E002C06FEF7FEFC5010E941A
S1132320D5124C018201F32DFF773F2E16C02801F0
S113233022E0420E511CF801A080B18036FE03C099
S1132340692D70E002C06FEF7FEFC5010E94CA12D1
S11323504C01F32DF0683F2E820133FC1BC0822D0B
S113236090E088169906B0F4B60180E290E00E94ED
S1132370E0122A94F4CFF50137FC859137FE819160
S11323805F01B60190E00E94E01221102A9421E03E
S1132390821A91088114910471F7E8C0843611F00F
S11323A0893641F5F80137FE07C060817181828169
S11323B093810C5F1F4F08C060817181072E000C50
S11323C0880B990B0E5F1F4FF32DFF763F2E97FF5F
S11323D009C090958095709561957F4F8F4F9F4F61
S11323E0F0683F2E2AE030E0A3010E941C13882EDF
S11323F0861845C0853731F4232D2F7EB22E2AE06E
S113240030E025C0932D997FB92E8F36C1F018F492
S1132410883579F0B5C0803719F0883721F0B0C01D
S1132420E92FE061BE2EB4FE0DC0FB2DF460BF2E7B
S113243009C034FE0AC0292F2660B22E06C028E047
S113244030E005C020E130E002C020E132E0F801D4
S1132450B7FE07C060817181828193810C5F1F4F39
S113246006C06081718180E090E00E5F1F4FA30180
S11324700E941C13882E8618FB2DFF773F2E36FEF4
S11324800DC0232D2E7FA22E891458F434FE0BC0C8
S113249032FC09C0832D8E7EA82E05C0B82CA32C37
S11324A003C0B82C01C0B92CA4FE0FC0FE01E80D76
S11324B0F11D8081803321F49A2D997EA92E09C0C3
S11324C0A2FE06C0B394B39404C08A2D867809F0A2
S11324D0B394A3FC11C0A0FE06C0B21488F4280C67
S11324E0922C9B180EC0B21460F4B60180E290E006
S11324F00E94E012B394F7CFB21418F42B1802C060
S1132500982C212CA4FE10C0B60180E390E00E9418
S1132510E012A2FE17C0A1FC03C088E790E002C04D
S113252088E590E0B6010CC08A2D867859F0A1FEAA
S113253002C08BE201C080E2A7FC8DE2B60190E00C
S11325400E94E012891438F4B60180E390E00E94FE
S1132550E0129A94F7CF8A94F301E80DF11D80817B
S1132560B60190E00E94E0128110F5CF222009F418
S113257042CEB60180E290E00E94E0122A94F6CFA7
S1132580F6018681978102C08FEF9FEF2B96E2E1DF
S11325900C94A913FC010590615070400110D8F708
S11325A0809590958E0F9F1F0895FC016150704097
S11325B001900110D8F7809590958E0F9F1F089574
S11325C00F931F93CF93DF93FB01238121FD03C05E
S11325D08FEF9FEF2CC022FF16C0468157812481C4
S11325E035814217530744F4A081B1819D012F5FC7
S11325F03F4F318320838C93268137812F5F3F4F58
S11326003783268314C08B01EC01FB010084F18520
S1132610E02D0995892BE1F6D80116968D919C91B0
S11326201797019617969C938E931697CE01DF9178
S1132630CF911F910F910895FA01AA27283051F1E3
S1132640203181F1E8946F936E7F6E5F7F4F8F4FDF
S11326509F4FAF4FB1E03ED0B4E03CD0670F781F3E
S1132660891F9A1FA11D680F791F8A1F911DA11D23
S11326706A0F711D811D911DA11D20D009F468945C
S11326803F912AE0269F11243019305D3193DEF604
S1132690CF010895462F4770405D4193B3E00FD0BA
S11326A0C9F7F6CF462F4F70405D4A3318F0495DA5
S11326B031FD4052419302D0A9F7EACFB4E0A69588
S11326C09795879577956795BA95C9F700976105AA
S11326D0710508959B01AC010A2E06945795479500
S11326E037952795BA95C9F7620F731F841F951FF5
S11326F0A01D08950E94C00FA59F900DB49F900D3A
S1132700A49F800D911D11240895B7FF0C947A1392
S11327100E947A13821B930B08952F923F924F923B
S11327205F926F927F928F929F92AF92BF92CF925D
S1132730DF92EF92FF920F931F93CF93DF93CDB766
S1132740DEB7CA1BDB0B0FB6F894DEBF0FBECDBFDE
S113275009942A88398848885F846E847D848C84AF
S11327609B84AA84B984C884DF80EE80FD800C81B8
S11327701B81AA81B981CE0FD11D0FB6F894DEBF9B
S10F27800FBECDBFED010895F894FFCF0B
S113278C010000000501260149015D018801B80121
S113279CEE010F00000003000000001F0B570B009C
S11327AC003F065B4F666D7D077F6F47414D4520AB
S11327BC4F564552204E455244004747004153540E
S11327CC45524F494453204D415454484557204297
S11327DC5552544F4E205334353239333836370032
S11327EC7B009200A4009B009200B900AE00920002
S11327FCA4009B008A009B007400204E7B00920076
S113280CA4009B009200B900CF00C400B900AE0034
S113281CB900AE007B00A40092000000A500A50046
S113282C5300A5004D01A000F401BE007800A500E2
S113283C4D01A500F401F401A500A5005300A50069
S113284C4D01A0004D01A5004D01A50053009001C0
S10B285C4D01A500200300005A
S9030000FC
