S0140000435353455F50726F6A6563742E73726563AC
S11300000C94F1000C940E010C940E010C940E014E
S11300100C940E010C944B010C940E010C940E01E3
S11300200C940E010C940E010C940E010C940E0110
S11300300C940E010C940E010C940E010C940E0100
S11300400C948D090C940E010C940E010C940E0169
S11300500C94CC080C948A080C940E010C940E0198
S11300600C940E010C940E010C940E010C940E01D0
S11300700C940E010C940E010C940E0153636F72D8
S1130080653A20256C750050726573732061206297
S11300907574746F6E20746F207374617274206150
S11300A06761696E0047414D45204F5645520053E4
S11300B0636F72653A20256C750041737465726FC5
S11300C06964730043535345323031302F37323033
S11300D0312070726F6A656374206279204D617497
S11300E07468657720427572746F6E00417374652D
S11300F0726F6964730061015E015A015601520115
S11301004E014A01460142013E01D001CC01C80121
S1130110C401C001BC01B801B401B101AD01A90120
S1130120A501A0019C01980194018F018B01870115
S113013082017E01790174016F016A016501649293
S1130140927D6C92926D809EA0C17C92924DE4A2AD
S1130150A29D182848FF4492926D468A926342FEFB
S1130160037C92A27D868A92A2C3E0100E10E1C69F
S1130170281028C7FC021C02FDF8040204F9FC0242
S113018002FD8080FE80816492924DFE9098677C8F
S1130190828A7C03FE9090617C82827DFE2010FF27
S11301A0FE403040FFFE020203FE1028C704020294
S11301B0FD82FE83FE1010FF7C82925DFE90908192
S11301C0FE929283FE82827D7C828245FE92926DB3
S11301D07E90907F1B5B324A001B5B25643B256449
S11301E0480011241FBECFEFD8E0DEBFCDBF11E021
S11301F0A0E0B1E0EAECFBE102C005900D92A0346E
S1130200B107D9F722E0A0E4B1E001C01D92AC38F7
S1130210B207E1F70E94CE060C94E30D0C940000A3
S1130220E8E6F0E0808182608083D99AECE6F0E031
S113023080818F60808310924001089580914001F5
S113024018163CF5809141016FB7F89490914001E4
S11302509230B4F021E030E091E0F901EF5BFE4F21
S11302604081F901E05CFE4F40839F5F292F30E01D
S113027040914001042E000C550B241735076CF3F4
S11302809091400191509093400166231CF478941E
S113029008958FEF08951F920F920FB60F921124B5
S11302A02F933F934F935F936F937F938F939F937A
S11302B0EF93FF9343B14F7080E090E0642F70E0C0
S11302C020914001243004F59B01082E02C035958D
S11302D027950A94E2F720FF17C02091450130E0EA
S11302E0082E02C0359527950A94E2F720FD0CC02C
S11302F0E091400121E02E0F209340010E2E000CCE
S1130300FF0BEF5BFE4F8083019684309105C1F6AD
S113031040934501FF91EF919F918F917F916F9150
S11303205F914F913F912F910F900FBE0F901F90AF
S1130330189520E1829FC00111246F70862B409193
S11303405301042E000C550B14161506C4F4909199
S11303505901891749F090E00AC0F901E75AFE4FA4
S11303602081821304C001C090E0892F08959F5F0B
S1130370292F30E02417350784F38FEF08958FEF8A
S113038008951F93CF93DF93182F90916D018FEFF2
S1130390890F482F082E000C550B292F092E000C0D
S11303A0330B2F5F3F4F24173507E4F0D8E0D91BF8
S11303B0C82F883028F4412F6D2F80E00E94D50487
S11303C081E08C0F90916D01D150482F082E000CC4
S11303D0550B292F092E000C330B2F5F3F4F241789
S11303E0350734F767E0691B412F81E00E94D5048B
S11303F0DF91CF911F91089590E020915301022E37
S1130400000C330B821793076CF4462FFC01E75A58
S1130410FE4F8081982F92959F7067E0691B8F70C3
S11304200E94D504089590E020915801022E000CFA
S1130430330B821793076CF4462FFC01EC5AFE4FE2
S11304408081982F92959F7067E0691B8F700E943E
S1130450D5040895CF93882324F1909158018917E6
S113046004F5C82F60E00E94130281E08C0F282F4E
S113047030E060915801462F062E000C550B2417CE
S1130480350764F4F901EC5AFE4F9081319790835B
S11304908F5F282F30E024173507A4F36150609351
S11304A05801CF9108951F93CF93DF93C82F862FC0
S11304B00E942A02CC230CF180915301C817ECF45A
S11304C060E08C2F0E94FC018C2FCC0F990B409183
S11304D05301242F042E000C330B215031098217B1
S11304E0930744F4F901E75AFE4F2081FC01E75ACF
S11304F0FE4F2083415040935301DFE00E943E0AA7
S1130500DC01CB0187709927AA27B078BB2354F468
S11305100197A109B109886F9F6FAF6FBF6F0196F3
S1130520A11DB11DC82F0E943E0ADC01CB018170C0
S11305309927AA27B078BB2354F40197A109B109DC
S11305408E6F9F6FAF6FBF6F0196A11DB11D1D2FE1
S1130550181B612F8C2F0E9499018F3F79F680918F
S11305605301E82F082E000CFF0BE75AFE4F90E1D1
S1130570C99FB00111241F70612B608391E0980F13
S11305809093530160EF0E94FC0181E090E00E948F
S1130590E20664E070E082E090E00E944D090E946F
S11305A0F7069F938F937F936F938CE790E09F93CD
S11305B08F930E94D30A0F900F900F900F900F907B
S11305C00F90DF91CF911F9108954F925F926F9298
S11305D07F92AF92BF92CF92DF92EF92FF920F93EE
S11305E01F93CF93DF9383E080936D0110925801A2
S11305F01092530109E511E00F2EFDE6AF2EF1E054
S1130600BF2EF02D0F2EFDE04F2E512C612C712C9E
S1130610F02D0E943E0A6B017C0127E0C222DD24FA
S1130620EE2420E8F222FF2084F481E0C81AD108E5
S1130630E108F108E8EFCE2ADD24DA94ED2CFE2C53
S1130640FFEFCF1ADF0AEF0AFF0A0E943E0AA30156
S113065092010E94D409C3E0C60F6C2F8C2D0E9416
S113066099018F3FB1F620E1C29EB0011124CF70F1
S1130670C62BF801C1938F01809153018F5F809342
S11306805301EA15FB0529F60E9418058FED0E9417
S1130690C10180915301181684F4C0E060EF8C2FDF
S11306A00E94FC01CF5F2C2F30E080915301082E73
S11306B0000C990B281739078CF3809158011816F0
S11306C084F4C0E06FE08C2F0E941302CF5F2C2FC4
S11306D030E080915801082E000C990B2817390737
S11306E08CF3DF91CF911F910F91FF90EF90DF90EA
S11306F0CF90BF90AF907F906F905F904F90089590
S1130700CF93C0915801C4300CF043C080916D0167
S113071090E1899F90011124422F42606C2F0C2E8E
S1130720000C770B16161706B4F490915401941725
S113073091F190E00AC0F901EC5AFE4F2081421376
S113074004C09F3F41F080E027C09F5F292F30E025
S11307502617370784F391E09C0F90935801EC2FF0
S1130760F0E0EC5AFE4F90E18902900111242260DE
S1130770208362E00E9499018F3F29F06C2F0E9430
S1130780530281E009C06FE08C2F0E94130281E0C4
S113079003C080E001C080E0CF910895EF92FF9202
S11307A01F93CF93DF9310E031C0E12E012E000C94
S11307B0FF08F701EC5AFE4F8081C82FCF70CF5F3E
S11307C0C03121F4812F0E942A0220C0D82FD29553
S11307D0DF706C2F8D2F0E9499018F3F21F0612FC4
S11307E00E94530213C060E0812F0E941302F7019C
S11307F0EC5AFE4F20E1D29FC0011124CF70C82BC8
S1130800C0836FE0812F0E9413021F5F8091580103
S113081018175CF2DF91CF911F91FF90EF9008952C
S11308208091460108959091460181E0891B80934F
S113083046010895CF93C82F80E00E94C101C111E1
S113084008C080916D01882359F0815080936D0117
S113085007C080916D01873019F08F5F80936D011F
S1130860C0916D0161E08C2F0E9499018F3F69F462
S113087060E08C0F0E9499018F3F39F460E081E0C1
S11308808C0F0E9499018F3F11F00E9413048FED89
S11308900E94C10181E0CF9108958F929F92BF92EF
S11308A0DF92EF92FF921F93CF93DF93B12C0F2E21
S11308B0F4E58F2EF1E09F2EF02D60C0EB2C0B2C75
S11308C0000CFF08F701E75AFE4FC0818C2F8F7090
S11308D01FEF180FC295CF70D0E0CE01829592958C
S11308E0907F9827807F9827912F9F70D92ED82AA0
S11308F020915801022E000C330B12161306DCF45F
S1130900F40180818D1591F060E009C0FC01EC5A7E
S1130910FE4F8081D81203C06F3F49F40CC06F5F53
S1130920862F90E0821793078CF305C060E08B2D2F
S11309300E9453020DC060E08B2D0E94FC01F70160
S1130940E75AFE4FD08260EF8B2D0E94FC01B394D6
S11309501230A0F480916D01082E000C990BC81779
S1130960D90791F011110AC09C0121503109C21715
S1130970D30751F00196C817D90731F0809153017C
S1130980B8160CF49BCF03C00E941304F7CFDF9179
S1130990CF911F91FF90EF90DF90BF909F908F9029
S11309A0089580E80E941F0908951F93CF93DF9351
S11309B08031B0F46830A0F4142FC62FD82F81E012
S11309C00E9447096C2F677080E1689F9001112491
S11309D08D2F8F70822B0E944709812F0E94470917
S11309E0DF91CF911F9108950F931F93CF93DF93BE
S11309F0803190F48B01C82F83E00E9447098C2F2B
S1130A008F700E944709E801085F1F4F89910E9477
S1130A104709C017D107D1F7DF91CF911F910F91EB
S1130A20089584E00E94470982E00E9447090895DE
S1130A308FE00E94470908950E94D1040E9410018A
S1130A4040E060E07BE480E090E00E9437080E9490
S1130A5067098FEF81B981E087B9789408950E947E
S1130A605E096AE070E08AE090E00E944D098CEE35
S1130A7090E09F938F930E94D30A6CE070E08AE029
S1130A8090E00E944D0984EC90E09F938F930E9424
S1130A90D30A0E9418050F900F900F900F9060EFEB
S1130AA08DE191E00E9400070DC02FE38DE093E0FB
S1130AB0215080409040E1F700C000000E941E01D8
S1130AC08F3F29F40E940F078111EFCFE8CF0895DB
S1130AD00E94E5020E945E0962E070E082E090E01C
S1130AE00E944D098AEB90E09F938F930E94D30A52
S1130AF00E94D90664E070E082E090E00E944D0913
S1130B000E94F7069F938F937F936F938FEA90E0F1
S1130B109F938F930E94D30A0E941E010E9485080E
S1130B208DB79EB708960FB6F8949EBF0FBE8DBFC3
S1130B3008952F923F924F925F926F927F928F927D
S1130B409F92AF92BF92CF92DF92EF92FF920F9358
S1130B501F93CF93DF93CDB7DEB72B970FB6F894DF
S1130B60DEBF0FBECDBF8AE0E3E1F1E0DE01119606
S1130B7001900D928A95E1F71B860E947F092B0153
S1130B803C014B015C0100E033243A946894222434
S1130B9021F8AEC00E941E01182F8F3F09F0B2C089
S1130BA00E947E08882309F43FC0E6E8F2E08081D1
S1130BB091810E94950A011105C08B3109F49EC0F0
S1130BC0932D0BC0013029F48B3509F499C0932D72
S1130BD004C0023029F4982F832D943411F408C0F2
S1130BE0932D282F2F7D2C3409F090C000E001C0F4
S1130BF000E080E00E941A0417C0803231F400E063
S1130C0001C000E00E9480030FC000E0113061F0D9
S1130C10923451F0112329F0933419F08F7D8235E9
S1130C2019F481E00E941A040E947F096B017C017F
S1130C300E94100481110FC0D301C20188539F4F39
S1130C40AF4FBF4FC816D906EA06FB0620F00E9434
S1130C50CE0326013701D501C40188519C4FAF4F03
S1130C60BF4FC816D906EA06FB0620F00E944D04C1
S1130C7046015701C701B60123E030E040E050E0EF
S1130C800E94B209672B682B692B91F59B8581E043
S1130C9089278B878B85811111C00E94F7062AE072
S1130CA030E040E050E00E94B209E1E0F0E0EC0FF7
S1130CB0FD1FE60FF71F808182B918C00E94F70656
S1130CC02AE030E040E050E00E94B209CA01B901D4
S1130CD02AE030E040E050E00E94B209E1E0F0E0B8
S1130CE0EC0FFD1FE60FF71F808182B98B8588B951
S1130CF00E941004882309F44DCF12C001E094CF60
S1130D00022D92CF833009F474CF04C0913409F0DA
S1130D1074CF77CF823009F475CF932D832D76CF9E
S1130D202B960FB6F894DEBF0FBECDBFDF91CF91E7
S1130D301F910F91FF90EF90DF90CF90BF90AF90F5
S1130D409F908F907F906F905F904F903F902F90E7
S1130D5008956EE070E08AE090E00E944D0985EA13
S1130D6090E09F938F930E94D30A6FE070E08AE033
S1130D7090E00E944D0987E890E09F938F930E9432
S1130D80D30A0F900F900F900F9001C018B80E94D3
S1130D901E018F3FD9F30E94130408950E941C057D
S1130DA00E942F050E9468050E9499050E94A906C9
S1130DB0F9CF10926E0110926F011092700110928F
S1130DC07101089540916E0150916F01609170011D
S1130DD070917101480F591F611D711D40936E017F
S1130DE050936F0160937001709371010895609145
S1130DF06E0170916F01809170019091710108955D
S1130E006093040190934B0180934A0110924D0129
S1130E1010924C01109249011092480108950F93C9
S1130E201F93CF93DF93CDB7DEB728970FB6F8940F
S1130E30DEBF0FBECDBFE0914C01F0914D01309764
S1130E4081F0149110FF06C010924D0110924C01D4
S1130E5000E06BC03196F0934D01E0934C0100E04B
S1130E6064C0E0914801F0914901309709F449C008
S1130E70CF0101969093490180934801E081E111EB
S1130E800AC0109249011092480180E18093470101
S1130E9000E010E04AC08FE98E0F8A3170F4F0E070
S1130EA0EE0FFF1FE85BFF4F8591949190934D01E6
S1130EB080934C0100E010E038C08FEB8E0F8A3134
S1130EC070F4F0E0EE0FFF1FE857FF4F8591949107
S1130ED090934D0180934C0100E010E026C080ED1A
S1130EE08E0F8A3000F5F0E0EE0FFF1FEA56FF4F39
S1130EF08591949190934D0180934C0100E010E012
S1130F0014C080914A0190914B0101E0009709F0CF
S1130F1000E0909349018093480110924B01109294
S1130F204A0110E002C000E010E00E941105209187
S1130F300401FE013896CE010196112314F4208396
S1130F4001C01082110F3197E817F907B1F7198220
S1130F50BE016F5F7F4F8FE00E94F40480914701D0
S1130F60882389F0815080934701002311F088235E
S1130F7011F090E003C091E001C091E081E0992379
S1130F8029F080E003C00023A1F3F7CF28960FB621
S1130F90F894DEBF0FBECDBFDF91CF911F910F91AB
S1130FA00895CF93C82F8A3019F48DE00E94D10799
S1130FB09FB7907802C0992329F1809173018F3FE4
S1130FC0D1F3F894E091720181E08E0F8093720165
S1130FD0F0E0EC58FE4FC083809173018F5F8093E3
S1130FE07301809172018F3F11F410927201E1EC50
S1130FF0F0E0808180628083992339F0789480E0E6
S113100090E005C081E090E002C080E090E0CF91E4
S11310100895809185028823E1F32FB72078F8940E
S1131020809173023091850290E0831B91095AF4F8
S1131030E091730280918502F0E0E81BF109EC571E
S1131040FD4F80810AC0E091730280918502F0E037
S1131050E81BF109EC58FD4F808190918502915075
S113106090938502222309F0789490E008951092D9
S11310707201109273011092730210928502109201
S1131080840240934E01DC01CB01880F991FAA1FF3
S1131090BB1F880F991FAA1FBB1F9C01AD01220F04
S11310A0331F441F551F60E072E18AE790E00E94FD
S11310B0D409BA01A9014F5F5F4F6F4F7F4FDB0126
S11310C0CA011AF40196A11DB11DB595A79597956E
S11310D0879501979093C5008093C400E1ECF0E0FC
S11310E088E18083808180688083E6E8F2E085E09F
S11310F091E0938382839183808308959091850204
S113110081E0911101C080E0089510927302109261
S1131110850208951F920F920FB60F9211242F93F8
S11311208F939F93EF93FF9380917301882329F109
S1131130809172012091730190E0821B91095AF40D
S1131140E091720180917301F0E0E81BF109ED5820
S1131150FD4F90810AC0E091720180917301F0E02B
S1131160E81BF109EC58FE4F908180917301815086
S1131170809373019093C60005C0E1ECF0E0808198
S11311808F7D8083FF91EF919F918F912F910F908D
S11311900FBE0F901F9018951F920F920FB60F92CB
S11311A011242F933F934F935F936F937F938F9368
S11311B09F93AF93BF93CF93EF93FF93C091C600D8
S11311C080914E01882349F0809173018F3F29F06B
S11311D060E070E08C2F0E94D107809185028031FD
S11311E020F081E08093840218C0CD3009F4CAE075
S11311F0E091730281E08E0F80937302F0E0EC586B
S1131200FD4FC083809185028F5F8093850280911A
S11312107302803111F410927302FF91EF91CF9118
S1131220BF91AF919F918F917F916F915F914F91FA
S11312303F912F910F900FBE0F901F90189594B16E
S1131240906B94B92C9A90E59CBD883021F0803243
S113125011F0823019F491E09DBD01C01DBC8032B3
S113126069F028F4883071F0803161F00EC0803468
S113127029F0803851F48CB581608CBD8CB58260C6
S11312808CBD03C08CB581608CBD2C9808958EBD37
S11312900DB407FEFDCF8EB508959F938F937F9372
S11312A06F9389ED91E09F938F930E94D30A0F90DF
S11312B00F900F900F900F900F90089584ED91E090
S11312C09F938F930E94D30A0F900F9008951092CA
S11312D04F0110925001109251011092520116BC0C
S11312E08CE787BD82E084BD83E085BDEEE6F0E057
S11312F080818260808385B3827085BB08952FB717
S1131300F89460914F017091500180915101909136
S1131310520122230CF4789408951F920F920FB671
S11313200F9211248F939F93AF93BF9380914F019A
S113133090915001A0915101B09152010196A11DCB
S1131340B11D80934F0190935001A0935101B0932C
S11313505201BF91AF919F918F910F900FBE0F904B
S11313601F901895A1E21A2EAA1BBB1BFD010DC0EC
S1131370AA1FBB1FEE1FFF1FA217B307E407F50741
S113138020F0A21BB30BE40BF50B661F771F881F1D
S1131390991F1A9469F760957095809590959B01B3
S11313A0AC01BD01CF010895052E97FB1EF40094F6
S11313B00E94EB0957FD07D00E94B20907FC03D035
S11313C04EF40C94EB0950954095309521953F4F80
S11313D04F4F5F4F089590958095709561957F4F1D
S11313E08F4F9F4F08958F929F92AF92BF92CF924B
S11313F0DF92EF92FF92CF93DF93EC0168817981C2
S11314008A819B81611571058105910521F464E24E
S113141079ED8BE597E02DE133EF41E050E00E9458
S1131420D40949015A019B01AC01A7EAB1E40E9425
S11314308A0D6B017C01ACEEB4EFA50194010E940E
S1131440980DDC01CB018C0D9D1DAE1DBF1DB7FF9A
S113145003C00197A109B04888839983AA83BB83F9
S1131460BC01CD019F77DF91CF91FF90EF90DF908A
S1131470CF90BF90AF909F908F9008958F929F923E
S1131480AF92BF92CF92DF92EF92FF9260910001F0
S11314907091010180910201909103016115710520
S11314A08105910521F464E279ED8BE597E02DE166
S11314B033EF41E050E00E94D40949015A019B01F5
S11314C0AC01A7EAB1E40E948A0D6B017C01ACEE89
S11314D0B4EFA50194010E94980DDC01CB018C0DA1
S11314E09D1DAE1DBF1DB7FF03C00197A109B048E4
S11314F08093000190930101A0930201B093030132
S1131500BC01CD019F77FF90EF90DF90CF90BF900B
S1131510AF909F908F9008956093000170930101A4
S113152080930201909303010895CF93DF93EC011C
S11315302B8120FF33C026FF0AC02F7B2B838E8193
S11315409F8101969F838E838A8190E029C022FF28
S11315500FC0E881F9818081082E000C990B009757
S113156019F420622B831AC03196F983E8830EC0E4
S1131570EA85FB85099597FF09C02B81019611F037
S113158080E201C080E1822B8B8308C02E813F81E1
S11315902F5F3F4F3F832E83992702C08FEF9FEF2A
S11315A0DF91CF910895A0E0B0E0E9EDFAE00C946A
S11315B0AB0DAE01495F5F4FDA016D917D91AD01D5
S11315C006E812E0F80182819381DC0113962C91E4
S11315D01397286013962C930E94F90AD801129647
S11315E0ED91FC9113972381277F2383E4E00C94EE
S11315F0C70DABE0B0E0EFEFFAE00C949D0D6C0189
S11316007B018A01FC0117821682838181FFCCC190
S1131610CE0101963C01F6019381F70193FD85917A
S113162093FF81917F01882309F4BAC1853239F48B
S113163093FD859193FF81917F01853229F4B60151
S113164090E00E94F00CE7CF912C212C312CFFE18B
S1131650F315D8F08B3279F038F4803279F0833294
S1131660A1F4232D20611DC08D3261F0803369F413
S1131670232D216016C0832D8260382EE32DE46073
S11316803E2E2AC0F32DF8601DC037FC2DC020ED7E
S1131690280F2A3040F08E32B9F436FC81C1232D54
S11316A02064322E19C036FE06C08AE0989E200DB2
S11316B01124922E11C0EAE02E9E200D1124222E18
S11316C0F32DF0623F2E08C08C3621F4832D806800
S11316D0382E02C0883641F4F70193FD859193FFBB
S11316E081917F018111B3CF982F9F7D95549330C1
S11316F028F40C5F1F4F9FE399830DC0833631F0AC
S1131700833771F0833509F059C021C0F801808115
S113171089830E5F1F4F88248394912C530113C037
S11317202801F2E04F0E511CF801A080B18036FE72
S113173003C0692D70E002C06FEF7FEFC5010E9406
S1131740E50C4C018201F32DFF773F2E16C02801D2
S113175022E0420E511CF801A080B18036FE03C085
S1131760692D70E002C06FEF7FEFC5010E94DA0CB3
S11317704C01F32DF0683F2E820133FC1BC0822DF7
S113178090E088169906B0F4B60180E290E00E94D9
S1131790F00C2A94F4CFF50137FC859137FE819142
S11317A05F01B60190E00E94F00C21102A9421E020
S11317B0821A91088114910471F7E8C0843611F0FB
S11317C0893641F5F80137FE07C060817181828155
S11317D093810C5F1F4F08C060817181072E000C3C
S11317E0880B990B0E5F1F4FF32DFF763F2E97FF4B
S11317F009C090958095709561957F4F8F4F9F4F4D
S1131800F0683F2E2AE030E0A3010E942C0D882EC0
S1131810861845C0853731F4232D2F7EB22E2AE059
S113182030E025C0932D997FB92E8F36C1F018F47E
S1131830883579F0B5C0803719F0883721F0B0C009
S1131840E92FE061BE2EB4FE0DC0FB2DF460BF2E67
S113185009C034FE0AC0292F2660B22E06C028E033
S113186030E005C020E130E002C020E132E0F801C0
S1131870B7FE07C060817181828193810C5F1F4F25
S113188006C06081718180E090E00E5F1F4FA3016C
S11318900E942C0D882E8618FB2DFF773F2E36FED6
S11318A00DC0232D2E7FA22E891458F434FE0BC0B4
S11318B032FC09C0832D8E7EA82E05C0B82CA32C23
S11318C003C0B82C01C0B92CA4FE0FC0FE01E80D62
S11318D0F11D8081803321F49A2D997EA92E09C0AF
S11318E0A2FE06C0B394B39404C08A2D867809F08E
S11318F0B394A3FC11C0A0FE06C0B21488F4280C53
S1131900922C9B180EC0B21460F4B60180E290E0F1
S11319100E94F00CB394F7CFB21418F42B1802C041
S1131920982C212CA4FE10C0B60180E390E00E9404
S1131930F00CA2FE17C0A1FC03C088E790E002C02F
S113194088E590E0B6010CC08A2D867859F0A1FE96
S113195002C08BE201C080E2A7FC8DE2B60190E0F8
S11319600E94F00C891438F4B60180E390E00E94E0
S1131970F00C9A94F7CF8A94F301E80DF11D80815D
S1131980B60190E00E94F00C8110F5CF222009F4FA
S113199042CEB60180E290E00E94F00C2A94F6CF89
S11319A0F6018681978102C08FEF9FEF2B96E2E1CB
S11319B00C94B90DFC010590615070400110D8F7EA
S11319C0809590958E0F9F1F0895FC016150704083
S11319D001900110D8F7809590958E0F9F1F089560
S11319E00F931F93CF93DF93FB01238121FD03C04A
S11319F08FEF9FEF2CC022FF16C0468157812481B0
S1131A0035814217530744F4A081B1819D012F5FB2
S1131A103F4F318320838C93268137812F5F3F4F43
S1131A203783268314C08B01EC01FB010084F1850C
S1131A30E02D0995892BE1F6D80116968D919C919C
S1131A401797019617969C938E931697CE01DF9164
S1131A50CF911F910F910895FA01AA27283051F1CF
S1131A60203181F1E8946F936E7F6E5F7F4F8F4FCB
S1131A709F4FAF4FB1E03ED0B4E03CD0670F781F2A
S1131A80891F9A1FA11D680F791F8A1F911DA11D0F
S1131A906A0F711D811D911DA11D20D009F4689448
S1131AA03F912AE0269F11243019305D3193DEF6F0
S1131AB0CF010895462F4770405D4193B3E00FD0A6
S1131AC0C9F7F6CF462F4F70405D4A3318F0495D91
S1131AD031FD4052419302D0A9F7EACFB4E0A69574
S1131AE09795879577956795BA95C9F70097610596
S1131AF0710508959B01AC010A2E069457954795EC
S1131B0037952795BA95C9F7620F731F841F951FE0
S1131B10A01D08950E94D40DA59F900DB49F900D13
S1131B20A49F800D911D11240895B7FF0C948A0D74
S1131B300E948A0D821B930B08952F923F924F921D
S1131B405F926F927F928F929F92AF92BF92CF9249
S1131B50DF92EF92FF920F931F93CF93DF93CDB752
S1131B60DEB7CA1BDB0B0FB6F894DEBF0FBECDBFCA
S1131B7009942A88398848885F846E847D848C849B
S1131B809B84AA84B984C884DF80EE80FD800C81A4
S1131B901B81AA81B981CE0FD11D0FB6F894DEBF87
S1131BA00FBECDBFED010895A29FB001B39FC00148
S1131BB0A39F700D811D1124911DB29F700D811D75
S10D1BC01124911D0895F894FFCF3D
S1131BCA010000000F0000000300000000D1070913
S1131BDA0800003F065B4F666D7D077F6F415354D3
S1131BEA45524F494453204D415454484557204285
S1131BFA5552544F4E205334353239333836370020
S9030000FC
