:100000000C940F010C942C010C942C010C942C01D9
:100010000C942C010C9469010C942C010C942C016F
:100020000C942C010C942C010C942C010C942C019C
:100030000C942C010C942C010C942C010C942C018C
:100040000C94F00B0C942C010C942C010C942C01AE
:100050000C94760A0C94340A0C942C010C942C0108
:100060000C942C010C942C010C942C010C942C015C
:100070000C942C010C942C010C942C01596F7520BC
:100080006861766520256C75206C697665732072D1
:10009000656D61696E696E672E0053636F72653AB4
:1000A00020256C7500507265737320612062757431
:1000B000746F6E20746F2073746172742061676155
:1000C000696E0047414D45204F56455200596F75A6
:1000D000206861766520256C75206C6976657320D3
:1000E00072656D61696E696E672E0053636F72652C
:1000F0003A20256C750041737465726F69647300F2
:1001000043535345323031302F3732303120707203
:100110006F6A656374206279204D617474686577D5
:1001200020427572746F6E0041737465726F6964FA
:1001300073009D019A01960192018E018A01860148
:1001400082017E017A010C02080204020002FC0115
:10015000F801F401F001ED01E901E501E101DC0143
:10016000D801D401D001CB01C701C301BE01BA013E
:10017000B501B001AB01A601A1016492927D6C9220
:10018000926D809EA0C17C92924DE4A2A29D1828FF
:1001900048FF4492926D468A926342FE037C92A28B
:1001A0007D868A92A2C3E0100E10E1C6281028C7EF
:1001B000FC021C02FDF8040204F9FC0202FD80802E
:1001C000FE80816492924DFE9098677C828A7C03C7
:1001D000FE9090617C82827DFE2010FFFE403040C8
:1001E000FFFE020203FE1028C7040202FD82FE8306
:1001F000FE1010FF7C82925DFE909081FE929283B1
:10020000FE82827D7C828245FE92926D7E90907FFE
:100210001B5B324A001B5B25643B256448001124AC
:100220001FBECFEFD8E0DEBFCDBF11E0A0E0B1E050
:10023000E8E9F0E202C005900D92A035B107D9F7C8
:1002400022E0A0E5B1E001C01D92AC3AB207E1F7AF
:100250000E9478080C944A100C940000E8E6F0E044
:10026000808182608083D99AECE6F0E080818F60A3
:1002700080831092500108958091500118163CF52A
:10028000809151016FB7F894909150019230B4F081
:1002900021E030E091E0F901EF5AFE4F4081F90191
:1002A000E05BFE4F40839F5F292F30E0409150017B
:1002B000042E000C550B241735076CF39091500158
:1002C00091509093500166231CF4789408958FEF19
:1002D00008951F920F920FB60F9211242F933F9300
:1002E0004F935F936F937F938F939F93EF93FF93BE
:1002F00043B14F7080E090E0642F70E02091500196
:10030000243004F59B01082E02C0359527950A94E8
:10031000E2F720FF17C02091550130E0082E02C0FF
:10032000359527950A94E2F720FD0CC0E091500125
:1003300021E02E0F209350010E2E000CFF0BEF5AE0
:10034000FE4F8083019684309105C1F6409355019C
:10035000FF91EF919F918F917F916F915F914F915D
:100360003F912F910F900FBE0F901F90189520E195
:10037000829FC00111246F70862B40916701042E6B
:10038000000C550B14161506C4F490916D018917D5
:1003900049F090E00AC0F901E359FE4F2081821331
:1003A00004C001C090E0892F08959F5F292F30E09D
:1003B0002417350784F38FEF08958FEF08951F9367
:1003C000CF93DF93182F909181018FEF890F482FE2
:1003D000082E000C550B292F092E000C330B2F5F14
:1003E0003F4F24173507E4F0D8E0D91BC82F8830D9
:1003F00028F4412F6D2F80E00E940B0681E08C0FC6
:1004000090918101D150482F082E000C550B292FB7
:10041000092E000C330B2F5F3F4F2417350734F79D
:1004200067E0691B412F81E00E940B06DF91CF91AD
:100430001F91089590E020916701022E000C330B6C
:10044000821793076CF4462FFC01E359FE4F80811D
:10045000982F92959F7067E0691B8F700E940B0622
:100460000895CF9388230CF1909167018917ECF4DC
:10047000C82F60E00E941A028C2FCC0F990B40917C
:100480006701242F042E000C330B215031098217F1
:10049000930744F4F901E359FE4F2081FC01E3592D
:1004A000FE4F2083415040936701CF91089590E023
:1004B00020916C01022E000C330B821793076CF411
:1004C000462FFC01E859FE4F8081982F92959F702E
:1004D00067E0691B8F700E940B060895CF938823F5
:1004E00024F190916C01891704F5C82F60E00E94F7
:1004F000570281E08C0F282F30E060916C01462F6D
:10050000062E000C550B2417350764F4F901E85941
:10051000FE4F9081319790838F5F282F30E0241712
:100520003507A4F3615060936C01CF9108954F9209
:100530005F926F927F928F929F92AF92BF92CF9273
:10054000DF92EF92FF920E94E20B4B015C016B0184
:100550007C012B013C0120ED420E27E0521E611C64
:10056000711C22C00E94E20B6B017C01D501C40109
:100570008C509E4FAF4FBF4FC816D906EA06FB06F8
:1005800018F08FED0E94DF01D501C40188519C4F06
:10059000AF4FBF4FC816D906EA06FB0628F080E029
:1005A0000E94DF0146015701C414D504E604F70494
:1005B000C8F28FED0E94DF01FF90EF90DF90CF90A7
:1005C000BF90AF909F908F907F906F905F904F9073
:1005D00008951F93CF93DF93C82F862F0E946E023A
:1005E0008C2F0E943102DFE00E94B40CDC01CB01B1
:1005F00087709927AA27B078BB2354F40197A109E3
:10060000B109886F9F6FAF6FBF6F0196A11DB11DBC
:10061000C82F0E94B40CDC01CB0181709927AA2756
:10062000B078BB2354F40197A109B1098E6F9F6F75
:10063000AF6FBF6F0196A11DB11D1D2F181B612F3C
:100640008C2F0E94B7018F3F79F680916701E82FC8
:10065000082E000CFF0BE359FE4F90E1C99FB0013B
:1006600011241F70612B608391E0980F90936701B4
:1006700060EF0E941A0281E090E00E948C0864E022
:1006800070E082E090E00E94A60B0E94A1089F9378
:100690008F937F936F938AE990E09F938F930E944B
:1006A000490D0F900F900F900F900F900F90DF91CA
:1006B000CF911F9108954F925F926F927F92AF9268
:1006C000BF92CF92DF92EF92FF920F931F93CF933F
:1006D000DF9383E08093810110926C011092670197
:1006E0000DE611E00F2EF1E8AF2EF1E0BF2EF02D58
:1006F0000F2EFDE04F2E512C612C712CF02D0E94FD
:10070000B40C6B017C0127E0C222DD24EE2420E83A
:10071000F222FF2084F481E0C81AD108E108F10830
:10072000E8EFCE2ADD24DA94ED2CFE2CFFEFCF1A71
:10073000DF0AEF0AFF0A0E94B40CA30192010E9493
:10074000190CC3E0C60F6C2F8C2D0E94B7018F3F90
:10075000B1F620E1C29EB0011124CF70C62BF80182
:10076000C1938F01809167018F5F80936701EA15C4
:10077000FB0529F60E9455068FED0E94DF0180914E
:100780006701181684F4C0E060EF8C2F0E941A02F3
:10079000CF5F2C2F30E080916701082E000C990B61
:1007A000281739078CF380916C01181684F4C0E087
:1007B0006FE08C2F0E945702CF5F2C2F30E080918A
:1007C0006C01082E000C990B281739078CF3DF9168
:1007D000CF911F910F91FF90EF90DF90CF90BF903E
:1007E000AF907F906F905F904F900895CF93C0919E
:1007F0006C01C4300CF043C08091810190E1899F6D
:1008000090011124422F42606C2F0C2E000C770BAC
:1008100016161706B4F490916801941791F190E0C0
:100820000AC0F901E859FE4F2081421304C09F3FDE
:1008300041F080E027C09F5F292F30E0261737075F
:1008400084F391E09C0F90936C01EC2FF0E0E85959
:10085000FE4F90E18902900111242260208362E022
:100860000E94B7018F3F29F06C2F0E94E90281E0BE
:1008700009C06FE08C2F0E94570281E003C080E026
:1008800001C080E0CF910895EF92FF921F93CF9324
:10089000DF9310E031C0E12E012E000CFF08F701BC
:1008A000E859FE4F8081C82FCF70CF5FC03121F44F
:1008B000812F0E946E0220C0D82FD295DF706C2F3E
:1008C0008D2F0E94B7018F3F21F0612F0E94E90216
:1008D00013C060E0812F0E945702F701E859FE4FD4
:1008E00020E1D29FC0011124CF70C82BC0836FE0DC
:1008F000812F0E9457021F5F80916C0118175CF2D4
:10090000DF91CF911F91FF90EF9008950E947F0695
:1009100021E0672B682B692B09F020E0822F0895D6
:10092000CF92DF92EF92FF920F931F93CF930E948B
:100930007F06672B682B692B21F08FEF9FEF0E94BA
:10094000660688B1817088B9C0E001E010E00DC092
:1009500028B184E08C0FA80102C0440F551F8A956E
:10096000E2F7CA01822B88B9CF5F0E947F06CC2EA6
:100970000C2E000CDD08EE08FF08C616D706E806A8
:10098000F90630F366E070E082E090E00E94A60B8A
:100990000E947F069F938F937F936F938CE790E0E5
:1009A0009F938F930E94490D0F900F900F900F907F
:1009B0000F900F90CF911F910F91FF90EF90DF90CC
:1009C000CF900895CF93C82F80E00E94DF01C1111E
:1009D00008C080918101882359F081508093810162
:1009E00007C080918101873019F08F5F809381016A
:1009F000C091810161E08C2F0E94B7018F3F69F4A3
:100A000060E08C0F0E94B7018F3F39F460E081E015
:100A10008C0F0E94B7018F3FE1F00E9490048091FB
:100A2000810161E08F5F0E94B7010E9431028091D5
:100A3000810160E081500E94B7010E9431028091E3
:100A4000810160E08F5F0E94B7010E9431020E9425
:100A500097028FED0E94DF0181E0CF9108958F9280
:100A60009F92BF92DF92EF92FF921F93CF93DF93FB
:100A7000B12C0F2EF8E68F2EF1E09F2EF02D60C0E6
:100A8000EB2C0B2C000CFF08F701E359FE4FC08143
:100A90008C2F8F701FEF180FC295CF70D0E0CE0152
:100AA00082959295907F9827807F9827912F9F70AD
:100AB000D92ED82A20916C01022E000C330B12166D
:100AC0001306DCF4F40180818D1591F060E009C01B
:100AD000FC01E859FE4F8081D81203C06F3F49F4F2
:100AE0000CC06F5F862F90E0821793078CF305C0D0
:100AF00060E08B2D0E94E9020DC060E08B2D0E940A
:100B00001A02F701E359FE4FD08260EF8B2D0E944D
:100B10001A02B3941230A0F480918101082E000CC7
:100B2000990BC817D90791F011110AC09C012150E7
:100B30003109C217D30751F00196C817D90731F010
:100B400080916701B8160CF49BCF08C00E949004F6
:100B50008B2D0E9431020E949702F2CFDF91CF913C
:100B60001F91FF90EF90DF90BF909F908F9008951E
:100B7000CF92DF92EF92FF926B017C01809157013F
:100B800090915801A0915901B0915A018C599F4FF1
:100B9000AF4FBF4F8C159D05AE05BF0578F5809111
:100BA0005601813140F50E944E06C0925701D09205
:100BB0005801E0925901F0925A01809156018F5FDD
:100BC000809356011FC060EF8DE191E00E94AA085A
:100BD000809156018F5F8093560114C00E94B9081E
:100BE000882381F0C0925701D0925801E0925901B8
:100BF000F0925A0107C0803189F7E5CF8091560104
:100C0000803109F3FF90EF90DF90CF90089580E856
:100C10000E94780B08951F93CF93DF938031B0F437
:100C20006830A0F4142FC62FD82F81E00E94A00BAB
:100C30006C2F677080E1689F900111248D2F8F7059
:100C4000822B0E94A00B812F0E94A00BDF91CF91DD
:100C50001F9108950F931F93CF93DF93803190F4EA
:100C60008B01C82F83E00E94A00B8C2F8F700E94F5
:100C7000A00BE801085F1F4F89910E94A00BC017CD
:100C8000D107D1F7DF91CF911F910F91089584E0A3
:100C90000E94A00B82E00E94A00B089584E00E94B5
:100CA000A00B81E00E94A00B08958FE00E94A00B92
:100CB000089584E090E0A0E0B0E0809382019093FA
:100CC0008301A0938401B09385010895092E000C3F
:100CD000AA0BBB0B4091820150918301609184016A
:100CE00070918501840F951FA61FB71F8093820105
:100CF00090938301A0938401B0938501089560913E
:100D00008201709183018091840190918501089501
:100D10000E9407060E942E0140E060E07BE480E034
:100D200090E00E94E1090E94C00B0E94C90A7894D9
:100D300008950E94B70B6AE070E08AE090E00E949C
:100D4000A60B88E291E09F938F930E94490D6CE07F
:100D500070E08AE090E00E94A60B80E091E09F9313
:100D60008F930E94490D0E9455060F900F900F908F
:100D70000F9060EF8CE291E00E94AA080DC02FE373
:100D80008DE093E0215080409040E1F700C00000EA
:100D90000E943C018F3F29F40E94B9088111EFCFD6
:100DA000E8CF0895CF92DF92EF92FF920F931F93B7
:100DB000CF930E945B030E94B70B62E070E082E079
:100DC00090E00E94A60B86EF90E09F938F930E9485
:100DD000490D0E94830864E070E082E090E00E9488
:100DE000A60B0E94A1089F938F937F936F938BEE26
:100DF00090E09F938F930E94490D0E94590688B1FD
:100E0000817088B94DB75EB7485F5F4F0FB6F894F1
:100E10005EBF0FBE4DBFC0E001E010E00DC028B1C5
:100E200084E08C0FA80102C0440F551F8A95E2F799
:100E3000CA01822B88B9CF5F0E947F06CC2E0C2E70
:100E4000000CDD08EE08FF08C616D706E806F9060E
:100E500030F366E070E082E090E00E94A60B0E9412
:100E60007F069F938F937F936F938DEC90E09F937A
:100E70008F930E94490D0E943C010E942F0A0F90FF
:100E80000F900F900F900F900F90CF911F910F9197
:100E9000FF90EF90DF90CF9008952F923F924F9266
:100EA0005F926F927F928F929F92AF92BF92CF92FA
:100EB000DF92EF92FF920F931F93CF93DF931F92D6
:100EC000CDB7DEB70E94E20B2B013C014B015C0168
:100ED000198222242A946894332431F8A6C00E94EF
:100EE0003C01082F8F3F09F0ABC00E94280A8823DD
:100EF00009F456C0E6EAF2E0808191810E940B0D70
:100F0000F981F11105C08B3109F495C0922D0DC006
:100F10009981913029F48B3509F490C0922D05C048
:100F2000E981E23029F4982F822D943411F408C01D
:100F3000922D282F2F7D2C3409F086C0198201C0F4
:100F4000198280E00E94E2042BC0803231F41982C1
:100F500001C019820E94F60323C01982013001F1F9
:100F60009234F1F0002329F0933419F08F7D82350B
:100F700021F481E00E94E20413C0803589F40E94CC
:100F8000DB0B0E94280A8823E1F3E6EAF2E0808185
:100F900091810E940B0D8F7D803599F70E94DB0BAC
:100FA0000E94E20B6B017C010E94860481110FC03C
:100FB000D301C20188539F4FAF4FBF4FC816D90608
:100FC000EA06FB0620F00E944404260137010E9435
:100FD000A1088B019C01000F111F221F331F000F5E
:100FE000111F221F331FAB01BC01400F511F621F95
:100FF000731FD501C40188519C4FAF4FBF4F841B55
:10100000950BA60BB70BC816D906EA06FB0620F00F
:101010000E942F05460157010E94A108CB010E94A2
:10102000730BC701B6010E94D80A0E948604882368
:1010300009F455CF13C0F1E0F983B2CF3982B0CFB4
:10104000833009F47ECF04C0913409F07ECF81CF84
:10105000823009F47FCF922D822D80CF0F90DF91C7
:10106000CF911F910F91FF90EF90DF90CF90BF90A5
:10107000AF909F908F907F906F905F904F903F9038
:101080002F900895CF92DF92EF92FF926EE070E082
:101090008AE090E00E94A60B83EC90E09F938F93F0
:1010A0000E94490D6FE070E08AE090E00E94A60B7C
:1010B00085EA90E09F938F930E94490D0F900F90C7
:1010C0000F900F900AC00E94E20B6B017C010E94FE
:1010D000D80AC701B6010E94B8050E943C018F3FA3
:1010E00091F30E945906FF90EF90DF90CF90089502
:1010F0000E9488060E9499060E94D2060E944D070F
:101100000E944208F9CF1092860110928701109236
:1011100088011092890108954091860150918701BC
:101120006091880170918901480F591F611D711DDF
:1011300040938601509387016093880170938901E1
:101140000895609186017091870180918801909146
:10115000890108956093040190935F0180935E017B
:10116000109261011092600110925D0110925C0179
:1011700008950F931F93CF93DF93CDB7DEB72897D2
:101180000FB6F894DEBF0FBECDBFE0916001F091C5
:101190006101309781F0149110FF06C01092610137
:1011A0001092600100E06BC03196F0936101E09312
:1011B000600100E064C0E0915C01F0915D01309756
:1011C00009F449C0CF01019690935D0180935C01C1
:1011D000E081E1110AC010925D0110925C0180E192
:1011E00080935B0100E010E04AC08FE98E0F8A31E6
:1011F00070F4F0E0EE0FFF1FEC57FF4F85919491D4
:10120000909361018093600100E010E038C08FEBA3
:101210008E0F8A3170F4F0E0EE0FFF1FEC53FF4F9A
:1012200085919491909361018093600100E010E0BA
:1012300026C080ED8E0F8A3000F5F0E0EE0FFF1F24
:10124000EE52FF4F859194919093610180936001DC
:1012500000E010E014C080915E0190915F0101E018
:10126000009709F000E090935D0180935C0110927B
:101270005F0110925E0110E002C000E010E00E94E9
:10128000470620910401FE013896CE0101961123F4
:1012900014F4208301C01082110F3197E817F90769
:1012A000B1F71982BE016F5F7F4F8FE00E942A065F
:1012B00080915B01882389F0815080935B0100233A
:1012C00011F0882311F090E003C091E001C091E09B
:1012D00081E0992329F080E003C00023A1F3F7CF38
:1012E00028960FB6F894DEBF0FBECDBFDF91CF9129
:1012F0001F910F910895CF93C82F8A3019F48DE074
:101300000E947B099FB7907802C0992329F18091B0
:101310008B018F3FD1F3F894E0918A0181E08E0F29
:1013200080938A01F0E0E457FE4FC08380918B01E7
:101330008F5F80938B0180918A018F3F11F410920F
:101340008A01E1ECF0E0808180628083992339F0AA
:10135000789480E090E005C081E090E002C080E0F9
:1013600090E0CF91089580919D028823E1F32FB7FB
:101370002078F89480918B0230919D0290E0831B3D
:1013800091095AF4E0918B0280919D02F0E0E81BF4
:10139000F109E456FD4F80810AC0E0918B028091F3
:1013A0009D02F0E0E81BF109E457FD4F8081909128
:1013B0009D02915090939D02222309F0789490E031
:1013C000089510928A0110928B0110928B02109254
:1013D0009D0210929C0240936201DC01CB01880FB8
:1013E000991FAA1FBB1F880F991FAA1FBB1F9C0113
:1013F000AD01220F331F441F551F60E072E18AE7E1
:1014000090E00E94190CBA01A9014F5F5F4F6F4F26
:101410007F4FDB01CA011AF40196A11DB11DB595DC
:10142000A7959795879501979093C5008093C400E1
:10143000E1ECF0E088E18083808180688083E6EAE7
:10144000F2E085E091E09383828391838083089525
:1014500090919D0281E0911101C080E00895109269
:101460008B0210929D0208951F920F920FB60F9259
:1014700011242F938F939F93EF93FF9380918B0170
:10148000882329F180918A0120918B0190E0821BB1
:1014900091095AF4E0918A0180918B01F0E0E81BF8
:1014A000F109E557FD4F90810AC0E0918A018091D2
:1014B0008B01F0E0E81BF109E457FE4F9081809129
:1014C0008B01815080938B019093C60005C0E1ECA5
:1014D000F0E080818F7D8083FF91EF919F918F91CC
:1014E0002F910F900FBE0F901F9018951F920F9283
:1014F0000FB60F9211242F933F934F935F936F93E7
:101500007F938F939F93AF93BF93CF93EF93FF936B
:10151000C091C60080916201882349F080918B01BF
:101520008F3F29F060E070E08C2F0E947B09809152
:101530009D02803120F081E080939C0218C0CD3064
:1015400009F4CAE0E0918B0281E08E0F80938B0258
:10155000F0E0E457FD4FC08380919D028F5F809340
:101560009D0280918B02803111F410928B02FF91C9
:10157000EF91CF91BF91AF919F918F917F916F919B
:101580005F914F913F912F910F900FBE0F901F9041
:1015900018958FEF81B981EF87B91092A20210924E
:1015A0009E0210929F021092A0021092A102089532
:1015B0000F931F9300919E0210919F022091A00211
:1015C0003091A1020D5F1F4F2F4F3F4F60177107E2
:1015D0008207930708F484C060939E0270939F0271
:1015E0008093A0029093A1024091A3025091A40283
:1015F0004A30510500F51092A2029A01ADECBCEC04
:101600000E94380C9695879596958795969587951F
:101610009C01220F331F880F991F880F991F880F75
:10162000991F820F931F481B590BFA01ED5EFE4F65
:10163000808182B94FC09091A20281E0891B809382
:10164000A2028091A20281111EC09A01ADECBCECF5
:101650000E94380C969587959695879596958795CF
:101660009C01220F331F880F991F880F991F880F25
:10167000991F820F931F481B590BFA01ED5EFE4F15
:10168000808182B927C09A01ADECBCEC0E94380C75
:10169000AC015695479556954795569547959A01AD
:1016A0000E94380C9695879596958795969587957F
:1016B0009C01220F331F880F991F880F991F880FD5
:1016C000991F820F931F481B590BFA01ED5EFE4FC5
:1016D000808182B988B19091A2028E7F892B88B9CE
:1016E0001F910F9108959093A4028093A3020895EF
:1016F00094B1906B94B92C9A90E59CBD883021F000
:10170000803211F0823019F491E09DBD01C01DBC02
:10171000803269F028F4883071F0803161F00EC0B9
:10172000803429F0803851F48CB581608CBD8CB543
:1017300082608CBD03C08CB581608CBD2C980895EF
:101740008EBD0DB407FEFDCF8EB508959F938F9388
:101750007F936F9385E192E09F938F930E94490D51
:101760000F900F900F900F900F900F90089580E1C1
:1017700092E09F938F930E94490D0F900F900895D0
:10178000109263011092640110926501109266013B
:1017900081E08093A50216BC8CE787BD82E084BD02
:1017A00083E085BDEEE6F0E080818260808385B3D2
:1017B000827085BB08959091A50281E0891B80937A
:1017C000A50208952FB7F8946091630170916401A8
:1017D000809165019091660122230CF4789408951C
:1017E0001F920F920FB60F9211248F939F93AF9376
:1017F000BF938091A502882399F080916301909115
:101800006401A0916501B09166010196A11DB11D11
:101810008093630190936401A0936501B093660186
:10182000BF91AF919F918F910F900FBE0F901F901E
:101830001895052E97FB1EF400940E94300C57FD5E
:1018400007D00E94470C07FC03D04EF40C94300CD8
:1018500050954095309521953F4F4F4F5F4F0895DC
:1018600090958095709561957F4F8F4F9F4F08950C
:10187000A29FB001B39FC001A39F700D811D1124D1
:10188000911DB29F700D811D1124911D0895A1E23B
:101890001A2EAA1BBB1BFD010DC0AA1FBB1FEE1FEA
:1018A000FF1FA217B307E407F50720F0A21BB30B35
:1018B000E40BF50B661F771F881F991F1A9469F7B1
:1018C00060957095809590959B01AC01BD01CF010D
:1018D00008958F929F92AF92BF92CF92DF92EF9234
:1018E000FF92CF93DF93EC01688179818A819B819C
:1018F000611571058105910521F464E279ED8BE5AF
:1019000097E02DE133EF41E050E00E94190C4901CE
:101910005A019B01AC01A7EAB1E40E9400106B01DF
:101920007C01ACEEB4EFA50194010E940E10DC0125
:10193000CB018C0D9D1DAE1DBF1DB7FF03C00197D0
:10194000A109B04888839983AA83BB83BC01CD01D8
:101950009F77DF91CF91FF90EF90DF90CF90BF9076
:10196000AF909F908F9008958F929F92AF92BF9269
:10197000CF92DF92EF92FF9260910001709101018E
:101980008091020190910301611571058105910516
:1019900021F464E279ED8BE597E02DE133EF41E04E
:1019A00050E00E94190C49015A019B01AC01A7EAC1
:1019B000B1E40E9400106B017C01ACEEB4EFA50114
:1019C00094010E940E10DC01CB018C0D9D1DAE1DFB
:1019D000BF1DB7FF03C00197A109B0488093000164
:1019E00090930101A0930201B0930301BC01CD01CA
:1019F0009F77FF90EF90DF90CF90BF90AF909F9038
:101A00008F9008956093000170930101809302010B
:101A1000909303010895CF93DF93EC012B8120FF76
:101A200033C026FF0AC02F7B2B838E819F810196B6
:101A30009F838E838A8190E029C022FF0FC0E881B6
:101A4000F9818081082E000C990B009719F420620F
:101A50002B831AC03196F983E8830EC0EA85FB8593
:101A6000099597FF09C02B81019611F080E201C012
:101A700080E1822B8B8308C02E813F812F5F3F4FF7
:101A80003F832E83992702C08FEF9FEFDF91CF9185
:101A90000895A0E0B0E0EFE4FDE00C942110AE0169
:101AA000495F5F4FDA016D917D91AD0106EA12E069
:101AB000F80182819381DC0113962C9113972860A1
:101AC00013962C930E946F0DD8011296ED91FC9104
:101AD00013972381277F2383E4E00C943D10ABE030
:101AE000B0E0E5E7FDE00C9413106C017B018A0186
:101AF000FC0117821682838181FFCCC1CE01019641
:101B00003C01F6019381F70193FD859193FF81914B
:101B10007F01882309F4BAC1853239F493FD859198
:101B200093FF81917F01853229F4B60190E00E94F4
:101B3000660FE7CF912C212C312CFFE1F315D8F063
:101B40008B3279F038F4803279F08332A1F4232D8E
:101B500020611DC08D3261F0803369F4232D216036
:101B600016C0832D8260382EE32DE4603E2E2AC0FD
:101B7000F32DF8601DC037FC2DC020ED280F2A3052
:101B800040F08E32B9F436FC81C1232D2064322E10
:101B900019C036FE06C08AE0989E200D1124922EB0
:101BA00011C0EAE02E9E200D1124222EF32DF062AA
:101BB0003F2E08C08C3621F4832D8068382E02C059
:101BC000883641F4F70193FD859193FF81917F0160
:101BD0008111B3CF982F9F7D9554933028F40C5FDB
:101BE0001F4F9FE399830DC0833631F0833771F027
:101BF000833509F059C021C0F801808189830E5FC7
:101C00001F4F88248394912C530113C02801F2E0C4
:101C10004F0E511CF801A080B18036FE03C0692D23
:101C200070E002C06FEF7FEFC5010E945B0F4C01B7
:101C30008201F32DFF773F2E16C0280122E0420ECD
:101C4000511CF801A080B18036FE03C0692D70E000
:101C500002C06FEF7FEFC5010E94500F4C01F32DC2
:101C6000F0683F2E820133FC1BC0822D90E0881665
:101C70009906B0F4B60180E290E00E94660F2A94C3
:101C8000F4CFF50137FC859137FE81915F01B601F4
:101C900090E00E94660F21102A9421E0821A910898
:101CA0008114910471F7E8C0843611F0893641F54A
:101CB000F80137FE07C060817181828193810C5FDA
:101CC0001F4F08C060817181072E000C880B990B93
:101CD0000E5F1F4FF32DFF763F2E97FF09C09095A3
:101CE0008095709561957F4F8F4F9F4FF0683F2E85
:101CF0002AE030E0A3010E94A20F882E861845C07A
:101D0000853731F4232D2F7EB22E2AE030E025C016
:101D1000932D997FB92E8F36C1F018F4883579F05C
:101D2000B5C0803719F0883721F0B0C0E92FE061E5
:101D3000BE2EB4FE0DC0FB2DF460BF2E09C034FED4
:101D40000AC0292F2660B22E06C028E030E005C068
:101D500020E130E002C020E132E0F801B7FE07C028
:101D600060817181828193810C5F1F4F06C0608109
:101D7000718180E090E00E5F1F4FA3010E94A20FCF
:101D8000882E8618FB2DFF773F2E36FE0DC0232DA3
:101D90002E7FA22E891458F434FE0BC032FC09C0E9
:101DA000832D8E7EA82E05C0B82CA32C03C0B82C82
:101DB00001C0B92CA4FE0FC0FE01E80DF11D808109
:101DC000803321F49A2D997EA92E09C0A2FE06C067
:101DD000B394B39404C08A2D867809F0B394A3FC1D
:101DE00011C0A0FE06C0B21488F4280C922C9B18D7
:101DF0000EC0B21460F4B60180E290E00E94660F5B
:101E0000B394F7CFB21418F42B1802C0982C212CDD
:101E1000A4FE10C0B60180E390E00E94660FA2FE0F
:101E200017C0A1FC03C088E790E002C088E590E0FD
:101E3000B6010CC08A2D867859F0A1FE02C08BE253
:101E400001C080E2A7FC8DE2B60190E00E94660F1F
:101E5000891438F4B60180E390E00E94660F9A94EA
:101E6000F7CF8A94F301E80DF11D8081B60190E06F
:101E70000E94660F8110F5CF222009F442CEB601F0
:101E800080E290E00E94660F2A94F6CFF6018681E8
:101E9000978102C08FEF9FEF2B96E2E10C942F10F9
:101EA000FC010590615070400110D8F78095909525
:101EB0008E0F9F1F0895FC0161507040019001102A
:101EC000D8F7809590958E0F9F1F08950F931F93BD
:101ED000CF93DF93FB01238121FD03C08FEF9FEFA1
:101EE0002CC022FF16C046815781248135814217BC
:101EF000530744F4A081B1819D012F5F3F4F31838F
:101F000020838C93268137812F5F3F4F3783268331
:101F100014C08B01EC01FB010084F185E02D0995D3
:101F2000892BE1F6D80116968D919C911797019611
:101F300017969C938E931697CE01DF91CF911F91A8
:101F40000F910895FA01AA27283051F1203181F12B
:101F5000E8946F936E7F6E5F7F4F8F4F9F4FAF4FB1
:101F6000B1E03ED0B4E03CD0670F781F891F9A1FC4
:101F7000A11D680F791F8A1F911DA11D6A0F711D78
:101F8000811D911DA11D20D009F468943F912AE084
:101F9000269F11243019305D3193DEF6CF0108956C
:101FA000462F4770405D4193B3E00FD0C9F7F6CF9D
:101FB000462F4F70405D4A3318F0495D31FD405265
:101FC000419302D0A9F7EACFB4E0A69597958795FB
:101FD00077956795BA95C9F70097610571050895DA
:101FE0009B01AC010A2E0694579547953795279586
:101FF000BA95C9F7620F731F841F951FA01D08951E
:102000000E94380CA59F900DB49F900DA49F800D49
:10201000911D11240895B7FF0C9400100E94001028
:10202000821B930B08952F923F924F925F926F9273
:102030007F928F929F92AF92BF92CF92DF92EF9258
:10204000FF920F931F93CF93DF93CDB7DEB7CA1BD9
:10205000DB0B0FB6F894DEBF0FBECDBF09942A8804
:10206000398848885F846E847D848C849B84AA84AC
:10207000B984C884DF80EE80FD800C811B81AA8139
:10208000B981CE0FD11D0FB6F894DEBF0FBECDBF04
:08209000ED010895F894FFCF63
:10209800010000000F00000003000000007B09B3EE
:1020A8000900003F065B4F666D7D077F6F47414D16
:1020B80045204F564552204E455244004153544501
:1020C800524F494453204D41545448455720425596
:1020D80052544F4E20533435323933383637000096
:00000001FF
