:100000000C940F010C942C010C942C010C942C01D9
:100010000C942C010C9469010C942C010C942C016F
:100020000C942C010C942C010C942C010C942C019C
:100030000C942C010C942C010C942C010C942C018C
:100040000C941C0F0C942C010C942C010C942C017E
:100050000C94960D0C94540D0C942C010C942C01C2
:100060000C942C010C942C010C942C010C942C015C
:100070000C942C010C942C010C942C01596F7520BC
:100080006861766520256C75206C697665732072D1
:10009000656D61696E696E672E0053636F72653AB4
:1000A00020256C7500507265737320612062757431
:1000B000746F6E20746F2073746172742061676155
:1000C000696E0047414D45204F56455200596F75A6
:1000D000206861766520256C75206C6976657320D3
:1000E00072656D61696E696E672E0053636F72652C
:1000F0003A20256C750041737465726F69647300F2
:1001000043535345323031302F3732303120707203
:100110006F6A656374206279204D617474686577D5
:1001200020427572746F6E0041737465726F6964FA
:1001300073009D019A01960192018E018A01860148
:1001400082017E017A010C02080204020002FC0115
:10015000F801F401F001ED01E901E501E101DC0143
:10016000D801D401D001CB01C701C301BE01BA013E
:10017000B501B001AB01A601A1016492927D6C9220
:10018000926D809EA0C17C92924DE4A2A29D1828FF
:1001900048FF4492926D468A926342FE037C92A28B
:1001A0007D868A92A2C3E0100E10E1C6281028C7EF
:1001B000FC021C02FDF8040204F9FC0202FD80802E
:1001C000FE80816492924DFE9098677C828A7C03C7
:1001D000FE9090617C82827DFE2010FFFE403040C8
:1001E000FFFE020203FE1028C7040202FD82FE8306
:1001F000FE1010FF7C82925DFE909081FE929283B1
:10020000FE82827D7C828245FE92926D7E90907FFE
:100210001B5B324A001B5B25643B256448001124AC
:100220001FBECFEFD8E0DEBFCDBF11E0A0E0B1E050
:10023000E8E7FAE202C005900D92AA3DB107D9F7AE
:1002400023E0AAEDB1E001C01D92A535B207E1F7A8
:100250000E94980B0C943A150C940000E8E6F0E02C
:10026000808182608083D99AECE6F0E080818F60A3
:1002700080831092DA0108958091DA0118163CF516
:100280008091DB016FB7F8949091DA019230B4F06D
:1002900021E030E091E0F901E552FE4F4081F901A3
:1002A000E652FE4F40839F5F292F30E04091DA01F4
:1002B000042E000C550B241735076CF39091DA01CE
:1002C00091509093DA0166231CF4789408958FEF8F
:1002D00008951F920F920FB60F9211242F933F9300
:1002E0004F935F936F937F938F939F93EF93FF93BE
:1002F00043B14F7080E090E0642F70E02091DA010C
:10030000243004F59B01082E02C0359527950A94E8
:10031000E2F720FF17C02091DF0130E0082E02C075
:10032000359527950A94E2F720FD0CC0E091DA019B
:1003300021E02E0F2093DA010E2E000CFF0BE55268
:10034000FE4F8083019684309105C1F64093DF0112
:10035000FF91EF919F918F917F916F915F914F915D
:100360003F912F910F900FBE0F901F90189520E195
:10037000829FC00111246F70862B40910A02042EC7
:10038000000C550B14161506C4F490911002891731
:1003900049F090E00AC0F901E05FFD4F208182132F
:1003A00004C001C090E0892F08959F5F292F30E09D
:1003B0002417350784F38FEF08958FEF08951F9367
:1003C000CF93DF93182F909124028FEF890F482F3E
:1003D000082E000C550B292F092E000C330B2F5F14
:1003E0003F4F24173507E4F0D8E0D91BC82F8830D9
:1003F00028F4412F6D2F80E00E94E80681E08C0FE9
:1004000090912402D150482F082E000C550B292F13
:10041000092E000C330B2F5F3F4F2417350734F79D
:1004200067E0691B412F81E00E94E806DF91CF91D0
:100430001F91089590E020910A02022E000C330BC8
:10044000821793076CF4462FFC01E05FFD4F80811B
:10045000982F92959F7067E0691B8F700E94E80645
:100460000895CF9388234CF190910A0289172CF5B7
:10047000C82F60E00E941A028C2FCC0F990B40917C
:100480000A02242F042E000C330B2150310982174D
:10049000930784F4F901E05FFD4F5081FC01E05FB8
:1004A000FD4F5083F901EA50FE4F2081FC01EA50D4
:1004B000FE4F2083415040930A02CF91089590E06F
:1004C00020910F02022E000C330B821793076CF45D
:1004D000462FFC01E55FFD4F8081982F92959F701C
:1004E00067E0691B8F700E94E8060895CF93882308
:1004F00024F190910F02891704F5C82F60E00E9443
:100500005F0281E08C0F282F30E060910F02462FB0
:10051000062E000C550B2417350764F4F901E55F2E
:10052000FD4F9081319790838F5F282F30E0241703
:100530003507A4F3615060930F02CF9108954F9255
:100540005F926F927F928F929F92AF92BF92CF9263
:10055000DF92EF92FF92CF93DF9300D000D0CDB720
:10056000DEB70E94050F69837A838B839C830E9488
:10057000830889809A80AB80BC8075016401240166
:10058000350188EE480E83E0581E611C711C36C090
:100590000E94D108C701B6010E94EF0D0E94050F0D
:1005A0006B017C01D501C40186509F4FAF4FBF4FF7
:1005B000C816D906EA06FB0619F480E00E94DF019E
:1005C000D501C4018C509E4FAF4FBF4FC816D906FE
:1005D000EA06FB0619F48FE00E94DF01D501C40191
:1005E00082519D4FAF4FBF4FC816D906EA06FB0692
:1005F00029F480EF0E94DF0146015701C414D5049D
:10060000E604F70428F20E947E0869817A818B81D2
:100610009C8163507109810991090E948D0E698145
:100620007A818B819C810E94130F0E943C010E9461
:100630004F0D8FED0E94DF010F900F900F900F90E4
:10064000DF91CF91FF90EF90DF90CF90BF90AF9070
:100650009F908F907F906F905F904F900895EF9252
:10066000FF921F93CF93DF93C82F862F0E947602AD
:100670008C2F0E943102DFE00E94A411DC01CB012B
:1006800087709927AA27B078BB2354F40197A10952
:10069000B109886F9F6FAF6FBF6F0196A11DB11D2C
:1006A000C82F0E94A411DC01CB0181709927AA27D1
:1006B000B078BB2354F40197A109B1098E6F9F6FE5
:1006C000AF6FBF6F0196A11DB11D1D2F181B612FAC
:1006D0008C2F0E94B7018F3F79F6E0900A020E2C12
:1006E000000CFF08F701E05FFD4F80E1C89FB001FB
:1006F00011241F70612B60830E94A411F701EA503E
:10070000FE4FDC01CB0183709927AA27B078BB2369
:1007100054F40197A109B1098C6F9F6FAF6FBF6F40
:100720000196A11DB11D808380910A0291E0980F6E
:1007300090930A0260EF0E941A0281E090E00E940A
:10074000AC0B64E070E082E090E00E94C90E0E9471
:10075000C10B9F938F937F936F938AE990E09F9350
:100760008F930E9439120F900F900F900F900F905F
:100770000F90DF91CF911F91FF90EF9008954F92CE
:100780005F926F927F928F929F92AF92BF92CF9221
:10079000DF92EF92FF920F931F93CF93DF9383E04B
:1007A0008093240210920F0210920A0200E112E0DC
:1007B0000F2EF6EFAF2EF1E0BF2EF02D0F2EF4E24C
:1007C0008F2EF2E09F2EF02D0F2EFDE04F2E512C9C
:1007D000612C712CF02D0E94A4116B017C0127E08B
:1007E000C222DD24EE2420E8F222FF2084F481E0FE
:1007F000C81AD108E108F108E8EFCE2ADD24DA941E
:10080000ED2CFE2CFFEFCF1ADF0AEF0AFF0A0E9441
:10081000A411A30192010E941711C3E0C60F6C2F0F
:100820008C2D0E94B7018F3FB1F620E1C29EB0012E
:100830001124CF70C62BF801C1938F010E94A4111F
:10084000DC01CB0183709927AA27B078BB2354F42D
:100850000197A109B1098C6F9F6FAF6FBF6F0196B0
:10086000A11DB11DF50181935F0180910A028F5F87
:1008700080930A020815190509F0ADCF0E943207CE
:100880008FED0E94DF0180910A02181684F4C0E007
:1008900060EF8C2F0E941A02CF5F2C2F30E08091E6
:1008A0000A02082E000C990B281739078CF3809147
:1008B0000F02181684F4C0E06FE08C2F0E945F02D4
:1008C000CF5F2C2F30E080910F02082E000C990B87
:1008D000281739078CF3DF91CF911F910F91FF906B
:1008E000EF90DF90CF90BF90AF909F908F907F90D0
:1008F0006F905F904F900895CF93C0910F02C430D6
:100900000CF043C08091240290E1899F9001112452
:10091000422F42606C2F0C2E000C770B1616170618
:10092000B4F490910B02941791F190E00AC0F90190
:10093000E55FFD4F2081421304C09F3F41F080E0FE
:1009400027C09F5F292F30E02617370784F391E0F7
:100950009C0F90930F02EC2FF0E0E55FFD4F90E1CC
:100960008902900111242260208362E00E94B70175
:100970008F3F29F06C2F0E942F0381E009C06FE0A8
:100980008C2F0E945F0281E003C080E001C080E004
:10099000CF910895EF92FF921F93CF93DF9310E0D2
:1009A00031C0E12E012E000CFF08F701E55FFD4F7D
:1009B0008081C82FCF70CF5FC03121F4812F0E947A
:1009C000760220C0D82FD295DF706C2F8D2F0E9419
:1009D000B7018F3F21F0612F0E942F0313C060E009
:1009E000812F0E945F02F701E55FFD4F20E1D29F5A
:1009F000C0011124CF70C82BC0836FE0812F0E94EB
:100A00005F021F5F80910F0218175CF2DF91CF9198
:100A10001F91FF90EF9008950E94A50721E0672B9A
:100A2000682B692B09F020E0822F08950E94A5070A
:100A3000672B682B692B21F08FEF9FEF0E944A07ED
:100A400066E070E082E090E00E94C90E0E94A50777
:100A50009F938F937F936F938CE790E09F938F93F7
:100A60000E9439120F900F900F900F900F900F90DF
:100A70000895CF93C82F80E00E94DF01C11108C004
:100A800080912402882371F08150809324020FC04A
:100A9000C13041F480912402873021F08F5F809330
:100AA000240205C08FED0E94DF0180E034C0C091B8
:100AB000240261E08C2F0E94B7018F3F69F460E04F
:100AC0008C0F0E94B7018F3F39F460E081E08C0FFA
:100AD0000E94B7018F3FD9F00E94160561E0809116
:100AE00024020E94B7010E9431028091240260E03A
:100AF00081500E94B7010E9431028091240260E07F
:100B00008F5F0E94B7010E9431020E949F028FED09
:100B10000E94DF0181E0CF910895CF92DF92EF92A2
:100B2000FF920F931F93CF93DF938091E40190E0A6
:100B3000019683709078992324F401978C6F9F6FAE
:100B400001968093E401F12CCBE0D2E078C00F2D28
:100B50000F2C000C110B2091E401F801EA50FE4F1C
:100B6000808190E0820F911D039714F4F39467C085
:100B7000F801E05FFD4F8081E82EE694E694E6946C
:100B8000E6948F70D82ECC24CA94C80E6C2D8E2D6E
:100B90000E94B7018F3F59F0E82F880FFF0BEA50F2
:100BA000FE4F8081F801EA50FE4F808301C0DC2CAB
:100BB000EE2DF0E0CF0182959295907F9827807F6F
:100BC00098279D2D9F70E92EE82A40910F02042E50
:100BD000000C550B14161506D4F488818E1591F06F
:100BE00060E009C0D901A55FBD4F9C91E91203C027
:100BF0006F3F49F40CC06F5F262F30E02417350794
:100C00008CF305C060E08F2D0E942F0318C081E097
:100C10008D1518F180912402082E000C990BE8170D
:100C2000F90799F0D11019C09C0121503109E21740
:100C3000F30759F00196E817F90779F406C0809197
:100C40000A02F8160CF483CF16C00E9416058F2DE9
:100C50000E9431020E949F02F2CF60E08F2D0E941D
:100C60001A02F801E05FFD4FE08260EF8F2D0E94D5
:100C70001A02F394E4CFDF91CF911F910F91FF906F
:100C8000EF90DF90CF900895CF92DF92EF92FF9296
:100C9000CF936B017C01C42F8091E0019091E10121
:100CA000A091E201B091E3018C599F4FAF4FBF4F2C
:100CB0008C159D05AE05BF0578F4413009F05DC087
:100CC0000E942B07C092E001D092E101E092E20184
:100CD000F092E30181E072C0423009F052C060EF4F
:100CE0008CE291E00E94CA0B81E068C00E94D90B9F
:100CF000882369F0C33009F04FC0C092E001D09260
:100D0000E101E092E201F092E30181E057C08091BD
:100D1000E0019091E101A091E201B091E3018C59D1
:100D20009F4FAF4FBF4F8C159D05AE05BF0568F5B2
:100D3000C33079F5C092E001D092E101E092E20186
:100D4000F092E30181E03AC060EF8BE391E00E9412
:100D5000CA0B81E033C00E94D90B882379F1C530DA
:100D600051F4C092E001D092E101E092E201F092F0
:100D7000E30181E023C080E021C0423009F0B6CF1A
:100D8000AECF443009F380E019C0C430E9F280E00E
:100D900015C0C43001F7D8CF8091E0019091E101F6
:100DA000A091E201B091E3018C599F4FAF4FBF4F2B
:100DB0008C159D05AE05BF0560F3E7CFCF91FF9081
:100DC000EF90DF90CF90089580E80E949B0E0895E9
:100DD0001F93CF93DF938031B0F46830A0F4142FC9
:100DE000C62FD82F81E00E94C30E6C2F677080E160
:100DF000689F900111248D2F8F70822B0E94C30E4B
:100E0000812F0E94C30EDF91CF911F9108950F9300
:100E10001F93CF93DF93803190F48B01C82F83E031
:100E20000E94C30E8C2F8F700E94C30EE801085FD2
:100E30001F4F89910E94C30EC017D107D1F7DF91D0
:100E4000CF911F910F91089584E00E94C30E82E01C
:100E50000E94C30E089584E00E94C30E81E00E94A8
:100E6000C30E08958FE00E94C30E089582B183706F
:100E700082B9149A159A169A179A84E090E0A0E025
:100E8000B0E08093250290932602A0932702B093AE
:100E9000280208950F931F93092E000CAA0BBB0B79
:100EA00040912502509126026091270270912802FC
:100EB000840F951FA61FB71F8093250290932602CB
:100EC000A0932702B093280282B1837082B98091E7
:100ED000250290912602A0912702B0912802019646
:100EE000A11DB11D0297A105B10560F181E0A7E048
:100EF000B0E0E1E0F0E092B19D01281B310987FDEF
:100F00003395AF0102C0440F551F2A95E2F79A01AD
:100F1000292B22B98F5F082F082E000C110B220BF2
:100F2000330B409125025091260260912702709167
:100F300028024F5F5F4F6F4F7F4F0417150726073B
:100F40003707C8F21F910F910895609125027091A3
:100F50002602809127029091280208957894ECE768
:100F6000F0E080E48083AAE7B0E086E88C9310820A
:100F70008081806480838C9180648C93EAE7F0E0C8
:100F8000808186FDFDCF80917800909179009093CB
:100F90002C0280932B02ECE7F0E08081816080835B
:100FA000EAE7F0E0808180648083808186FDFDCF68
:100FB000809178009091790090932A028093290281
:100FC00008958091040184300CF06FC08091E50198
:100FD000811107C0ECE7F0E010828081806480839B
:100FE00005C0ECE7F0E0808181608083EAE7F0E013
:100FF000808180648083808186FDFDCF2091780090
:101000003091790030932E0220932D029091E501CA
:101010009130E9F44091290250912A02BA016456B4
:1010200071092617370728F04C595F4F42175307AD
:1010300070F4E091040181E08E0F809304010E2E84
:10104000000CFF0BEA51FE4F83E080832AC04091E1
:101050002B0250912C02BA016456710926173707EA
:1010600070F4E091040181E08E0F809304010E2E54
:10107000000CFF0BEA51FE4F82E0808312C04C59F6
:101080005F4F4217530768F4E091040181E08E0F2F
:10109000809304010E2E000CFF0BEA51FE4F81E0FD
:1010A000808381E089278093E50108958091040180
:1010B000181614F58091E601909104019230B4F075
:1010C00021E030E091E0F901EA51FE4F4081F90161
:1010D000EB51FE4F40839F5F292F30E04091040188
:1010E000042E000C550B241735076CF39091040166
:1010F00091509093040108958FEF0895109280000D
:101100001092810008954E9B07C0549A83E2809309
:1011100080008AE18093810008958F929F92AF9220
:10112000BF92CF92DF92EF92FF924A015B019C0146
:1011300040E050E060E472E48FE090E00E94F5103F
:1011400069017A01B90180E090E00E94E60FA501F3
:1011500094010E94741020E030E048EC52E40E94B8
:10116000450F0E94B70F21E0C21AD108D092890022
:10117000C09288006115710529F410928B001092BD
:101180008A0006C06150710970938B0060938A00D9
:10119000FF90EF90DF90CF90BF90AF909F908F9097
:1011A00008950E94A41127E030E040E050E00E9442
:1011B0001711660F771FFB01EB5FFE4F40E050E019
:1011C00060E070E4808191810E948D0808950E9402
:1011D000E4060E942E0140E060E07BE480E090E0C5
:1011E0000E94010D0E94E30E0E94E90D789408957B
:1011F0007F928F929F92AF92BF92CF92DF92EF92A7
:10120000FF920F931F93CF93DF930E94050F6B0103
:101210007C010E94DA0E6AE070E08AE090E00E94B1
:10122000C90E88E291E09F938F930E9439126CE07F
:1012300070E08AE090E00E94C90E80E091E09F9308
:101240008F930E9439120E9432070F900F900F90D7
:101250000F90712C0EE110E060EF8EE391E00E94A0
:10126000CA0B40C00E94050F4B015C01C72DD0E0A6
:10127000FE01EE0FFF1FE356FE4F80819181A70113
:101280009601280F391F411D511D82169306A40691
:10129000B506C8F00E948308FE01EE0FFF1FEF594C
:1012A000FE4F8081918140E050E060E07FE3845D0B
:1012B0009E4F0E948D08CE010196B8010E94E11058
:1012C000782E750164013FEF40E752E03150404015
:1012D0005040E1F700C000000E947E080E943C01DF
:1012E0008F3F29F40E94D90B8111BCCFB5CFDF917C
:1012F000CF911F910F91FF90EF90DF90CF90BF9013
:10130000AF909F908F907F9008950E94BF030E949E
:10131000DA0E62E070E082E090E00E94C90E86EF93
:1013200090E09F938F930E9439120E94A30B64E078
:1013300070E082E090E00E94C90E0E94C10B9F9372
:101340008F937F936F938BEE90E09F938F930E9488
:1013500039120E9436070E94AE0766E070E082E014
:1013600090E00E94C90E0E94A5079F938F937F93E0
:101370006F938DEC90E09F938F930E9439120E949F
:101380003C010E944F0D8DB79EB70E960FB6F89494
:101390009EBF0FBE8DBF08952F923F924F925F92D6
:1013A0006F927F928F929F92AF92BF92CF92DF9275
:1013B000EF92FF920F931F93CF93DF9300D000D053
:1013C0001F92CDB7DEB70E94050F69837A838B83A6
:1013D0009C834B015C012B013C0110E000E03324B5
:1013E0003A946894222421F8FDC00E943C018D8328
:1013F0000E945608E82E3D813F3F09F003C10E943C
:10140000480D882309F4F7C0EFE4F3E0808191816F
:101410000E94FB11011105C08B3109F4E9C0232D95
:101420000BC0013029F48B3509F4E4C0232D04C02E
:10143000023029F4282F832D243411F40AC0232DDF
:10144000982F9F7D9C3439F0E4C09E2D9130B9F4E3
:1014500005C000E003C000E001C000E080E00E94A1
:101460003905882309F45BC00E94830840E050E0FE
:1014700060E070E488E592E00E948D08C8C0FD81BC
:10148000F23041F0232D832D213421F0803211F0F0
:10149000933081F40E947C04882309F440C00E94A8
:1014A000830840E050E060E070E48EEE91E00E943E
:1014B0008D08ADC03D81313091F1223481F133236B
:1014C00039F0233429F08F7D823511F0923081F488
:1014D00081E00E943905882311F10E94830840E0D1
:1014E00050E060E070E488E592E00E948D088FC0D3
:1014F0008035A9F40E94FE0E0E947E080E943C01E5
:101500000E94480D8823D1F3EFE4F3E080819181BC
:101510000E94FB118F7D803589F70E94FE0E11110C
:1015200003C00E947E0801C011500E94050F6B018C
:101530007C010E940C05811113C089819A81AB81C5
:10154000BC8188539F4FAF4FBF4FC816D906EA06DC
:10155000FB0630F00E94CA04C982DA82EB82FC8268
:10156000D501C401C296A11DB11DC816D906EA064F
:10157000FB0620F00E94E107460157010E94C10BC3
:10158000DC01CB01880F991FAA1FBB1F9C01AD0175
:10159000220F331F441F551F220F331F441F551F97
:1015A000BA01A901480F591F6A1F7B1FD301C2014D
:1015B00084529A4FAF4FBF4F841B950BA60BB70BAE
:1015C000C816D906EA06FB0620F00E948D05260102
:1015D00037010E94C10BCB010E94960EC701B601D4
:1015E0000E94EF0D0E940C05882309F4FECE17C05F
:1015F00001E001C0022D9E2D913009F42FCF232D43
:10160000832D46CFFD81F33009F428CF1ECF1FEF85
:101610008BCF9E2D913009F420CF00E035CF0F9075
:101620000F900F900F900F90DF91CF911F910F911E
:10163000FF90EF90DF90CF90BF90AF909F908F90F2
:101640007F906F905F904F903F902F900895CF9232
:10165000DF92EF92FF92CF930E947E080E94050FC7
:1016600041E00E944406C82F6EE070E08AE090E0FE
:101670000E94C90E83EC90E09F938F930E943912D1
:101680006FE070E08AE090E00E94C90E85EA90E089
:101690009F938F930E9439122FEF89E698E1215092
:1016A00080409040E1F700C000000F900F900F9035
:1016B0000F9032C00E94050F6B017C010E94EF0D5C
:1016C000C03138F441E0C701B6010E944406C80F9A
:1016D00023C0C03139F442E0C701B6010E9444067C
:1016E000C80F1AC0C43638F443E0C701B6010E94DF
:1016F0004406C80F11C0C43639F444E0C701B6012E
:101700000E944406C80F08C0CE3630F445E0C70139
:10171000B6010E944406C80F0E943C018F3F51F25F
:101720000E943607CF91FF90EF90DF90CF90089501
:101730000E94E7080E94F8080E9485090E94CC09CF
:101740000E94270BF9CF10922F02109230021092B4
:10175000310210923202089540912F0250913002CE
:101760006091310270913202480F591F611D711D45
:1017700040932F02509330026093310270933202F3
:10178000089560912F027091300280913102909102
:1017900032020895609313019093EE018093ED015E
:1017A0001092F0011092EF011092EC011092EB01F7
:1017B00008950F931F93CF93DF93CDB7DEB728978C
:1017C0000FB6F894DEBF0FBECDBFE091EF01F091F0
:1017D000F001309781F0149110FF06C01092F001D3
:1017E0001092EF0100E06BC03196F093F001E093AE
:1017F000EF0100E064C0E091EB01F091EC01309763
:1018000009F449C0CF0101969093EC018093EB015C
:10181000E081E1110AC01092EC011092EB0180E12D
:101820008093EA0100E010E04AC08FE98E0F8A3110
:1018300070F4F0E0EE0FFF1FEC57FF4F859194918D
:101840009093F0018093EF0100E010E038C08FEB3F
:101850008E0F8A3170F4F0E0EE0FFF1FEC53FF4F54
:10186000859194919093F0018093EF0100E010E056
:1018700026C080ED8E0F8A3000F5F0E0EE0FFF1FDE
:10188000EE52FF4F859194919093F0018093EF0178
:1018900000E010E014C08091ED019091EE0101E0B4
:1018A000009709F000E09093EC018093EB01109217
:1018B000EE011092ED0110E002C000E010E00E9485
:1018C000240720911301FE013896CE0101961123C1
:1018D00014F4208301C01082110F3197E817F90723
:1018E000B1F71982BE016F5F7F4F8FE00E9407073B
:1018F0008091EA01882389F081508093EA010023D6
:1019000011F0882311F090E003C091E001C091E054
:1019100081E0992329F080E003C00023A1F3F7CFF1
:1019200028960FB6F894DEBF0FBECDBFDF91CF91E2
:101930001F910F910895CF93C82F8A3019F48DE02D
:101940000E949B0C9FB7907802C0992329F1809147
:1019500034028F3FD1F3F894E091330281E08E0F8F
:1019600080933302F0E0EB5CFD4FC0838091340242
:101970008F5F80933402809133028F3F11F4109275
:101980003302E1ECF0E0808180628083992339F0BA
:10199000789480E090E005C081E090E002C080E0B3
:1019A00090E0CF910895809146038823E1F32FB70B
:1019B0002078F894809134033091460390E0831BA3
:1019C00091095AF4E091340380914603F0E0E81B5A
:1019D000F109EB5BFC4F80810AC0E09134038091F8
:1019E0004603F0E0E81BF109EB5CFC4F808190912D
:1019F0004603915090934603222309F0789490E097
:101A0000089510923302109234021092340310920F
:101A10004603109245034093F101DC01CB01880F8E
:101A2000991FAA1FBB1F880F991FAA1FBB1F9C01CC
:101A3000AD01220F331F441F551F60E072E18AE79A
:101A400090E00E941711BA01A9014F5F5F4F6F4FDD
:101A50007F4FDB01CA011AF40196A11DB11DB59596
:101A6000A7959795879501979093C5008093C4009B
:101A7000E1ECF0E088E18083808180688083EFE49E
:101A8000F3E084E191E093838283918380830895DE
:101A90009091460381E0911101C080E00895109279
:101AA00034031092460308951F920F920FB60F92BF
:101AB00011242F938F939F93EF93FF938091340280
:101AC000882329F1809133022091340290E0821B17
:101AD00091095AF4E091330280913402F0E0E81B5E
:101AE000F109EC5CFC4F90810AC0E09133028091D7
:101AF0003402F0E0E81BF109EB5CFD4F908180912E
:101B000034028150809334029093C60005C0E1EC0A
:101B1000F0E080818F7D8083FF91EF919F918F9185
:101B20002F910F900FBE0F901F9018951F920F923C
:101B30000FB60F9211242F933F934F935F936F93A0
:101B40007F938F939F93AF93BF93CF93EF93FF9325
:101B5000C091C6008091F101882349F08091340240
:101B60008F3F29F060E070E08C2F0E949B0C8091E9
:101B70004603803120F081E08093450318C0CD30CA
:101B800009F4CAE0E091340381E08E0F80933403BE
:101B9000F0E0EB5CFC4FC083809146038F5F809345
:101BA000460380913403803111F410923403FF9185
:101BB000EF91CF91BF91AF919F918F917F916F9155
:101BC0005F914F913F912F910F900FBE0F901F90FB
:101BD00018958FEF87B9539A10924B0308950F937E
:101BE0001F930091470310914803209149033091BE
:101BF0004A030D5F1F4F2F4F3F4F06171707280748
:101C0000390708F087C060934703709348038093B7
:101C1000490390934A0340914C0350914D034A303D
:101C2000510500F510924B039A01ADECBCEC0E94FB
:101C300036119695879596958795969587959C01EB
:101C4000220F331F880F991F880F991F880F991F24
:101C5000820F931F481B590BFA01EE5DFE4F8081E6
:101C600088B94FC090914B0381E0891B80934B034F
:101C700080914B0381111EC09A01ADECBCEC0E9417
:101C800036119695879596958795969587959C019B
:101C9000220F331F880F991F880F991F880F991FD4
:101CA000820F931F481B590BFA01EE5DFE4F808196
:101CB00088B927C09A01ADECBCEC0E943611AC018A
:101CC0005695479556954795569547959A010E9482
:101CD00036119695879596958795969587959C014B
:101CE000220F331F880F991F880F991F880F991F84
:101CF000820F931F481B590BFA01EE5DFE4F808146
:101D000088B99BB180914B03977F880F880F880F0C
:101D1000892B8BB91F910F9108956093470370939E
:101D200048038093490390934A03089590934D0389
:101D300080934C03089594B1906B94B92C9A90E5DC
:101D40009CBD883021F0803211F0823019F491E08E
:101D50009DBD01C01DBC803269F028F4883071F04F
:101D6000803161F00EC0803429F0803851F48CB598
:101D700081608CBD8CB582608CBD03C08CB58160E8
:101D80008CBD2C9808958EBD0DB407FEFDCF8EB589
:101D900008959F938F937F936F9385E192E09F9334
:101DA0008F930E9439120F900F900F900F900F9009
:101DB0000F90089580E192E09F938F930E943912D3
:101DC0000F900F9008951092F2011092F30110926B
:101DD000F4011092F50181E080934E0316BC8CE76C
:101DE00087BD82E084BD83E085BDEEE6F0E08081C2
:101DF0008260808385B3827085BB089590914E0385
:101E000081E0891B80934E0308952FB7F894609169
:101E1000F2017091F3018091F4019091F501222378
:101E20000CF4789408956093F2017093F301809319
:101E3000F4019093F50108951F920F920FB60F923F
:101E400011248F939F93AF93BF9380914E03882368
:101E500099F08091F2019091F301A091F401B09179
:101E6000F5010196A11DB11D8093F2019093F3013C
:101E7000A093F401B093F501BF91AF919F918F9121
:101E80000F900FBE0F901F9018950E94590F0C9441
:101E90003A100E94331058F00E942C1040F029F4A0
:101EA0005F3F29F00C94231051110C946E100C9488
:101EB00029100E944B1068F39923B1F3552391F335
:101EC000951B550BBB27AA2762177307840738F0A9
:101ED0009F5F5F4F220F331F441FAA1FA9F335D006
:101EE0000E2E3AF0E0E832D091505040E695001CBA
:101EF000CAF72BD0FE2F29D0660F771F881FBB1F74
:101F0000261737074807AB07B0E809F0BB0B802D51
:101F1000BF01FF2793585F4F3AF09E3F510578F07D
:101F20000C9423100C946E105F3FE4F3983ED4F3AE
:101F3000869577956795B795F7959F5FC9F7880F51
:101F4000911D9695879597F90895E1E0660F771FA3
:101F5000881FBB1F621773078407BA0720F0621B34
:101F6000730B840BBA0BEE1F88F7E09508950E945F
:101F7000531088F09F5798F0B92F9927B751B0F0B8
:101F8000E1F0660F771F881F991F1AF0BA95C9F7FD
:101F900014C0B13091F00E946D10B1E008950C941E
:101FA0006D10672F782F8827B85F39F0B93FCCF3D1
:101FB000869577956795B395D9F73EF4909580957A
:101FC000709561957F4F8F4F9F4F0895E89409C09A
:101FD00097FB3EF490958095709561957F4F8F4F5C
:101FE0009F4F9923A9F0F92F96E9BB279395F69572
:101FF000879577956795B795F111F8CFFAF4BB0FF0
:1020000011F460FF1BC06F5F7F4F8F4F9F4F16C053
:10201000882311F096E911C0772321F09EE8872FDD
:10202000762F05C0662371F096E8862F70E060E099
:102030002AF09A95660F771F881FDAF7880F969512
:10204000879597F9089597F99F6780E870E060E0B9
:1020500008959FEF80EC089500240A941616170641
:1020600018060906089500240A9412161306140689
:1020700005060895092E0394000C11F4882352F0EC
:10208000BB0F40F4BF2B11F460FF04C06F5F7F4FA4
:102090008F4F9F4F089557FD9058440F551F59F08B
:1020A0005F3F71F04795880F97FB991F61F09F3F45
:1020B00079F087950895121613061406551FF2CF6E
:1020C0004695F1DF08C0161617061806991FF1CFBE
:1020D00086957105610508940895E894BB276627E5
:1020E0007727CB0197F908950E9487100C943A1036
:1020F0000E942C1038F00E94331020F0952311F02C
:102100000C9423100C94291011240C946E100E942E
:102110004B1070F3959FC1F3950F50E0551F629FD0
:10212000F001729FBB27F00DB11D639FAA27F00D30
:10213000B11DAA1F649F6627B00DA11D661F829F57
:102140002227B00DA11D621F739FB00DA11D621F3C
:10215000839FA00D611D221F749F3327A00D611D59
:10216000231F849F600D211D822F762F6A2F11243B
:102170009F5750409AF0F1F088234AF0EE0FFF1F6E
:10218000BB1F661F771F881F91505040A9F79E3FC5
:10219000510580F00C9423100C946E105F3FE4F313
:1021A000983ED4F3869577956795B795F795E7951B
:1021B0009F5FC1F7FE2B880F911D9695879597F924
:1021C000089597FB072E16F4009407D077FD09D0E9
:1021D0000E94451107FC05D03EF4909581959F4FD4
:1021E0000895709561957F4F0895A1E21A2EAA1B5C
:1021F000BB1BFD010DC0AA1FBB1FEE1FFF1FA217B7
:10220000B307E407F50720F0A21BB30BE40BF50BB3
:10221000661F771F881F991F1A9469F7609570953C
:10222000809590959B01AC01BD01CF010895052ECD
:1022300097FB1EF400940E942E1157FD07D00E94B8
:10224000F51007FC03D04EF40C942E1150954095D8
:10225000309521953F4F4F4F5F4F08959095809552
:10226000709561957F4F8F4F9F4F0895A29FB0014A
:10227000B39FC001A39F700D811D1124911DB29FBA
:10228000700D811D1124911D0895AA1BBB1B51E1E6
:1022900007C0AA1FBB1FA617B70710F0A61BB70BD6
:1022A000881F991F5A95A9F780959095BC01CD017B
:1022B00008958F929F92AF92BF92CF92DF92EF924A
:1022C000FF92CF93DF93EC01688179818A819B81B2
:1022D000611571058105910521F464E279ED8BE5C5
:1022E00097E02DE133EF41E050E00E9417114901E2
:1022F0005A019B01AC01A7EAB1E40E94F0146B0102
:102300007C01ACEEB4EFA50194010E94FE14DC0147
:10231000CB018C0D9D1DAE1DBF1DB7FF03C00197E6
:10232000A109B04888839983AA83BB83BC01CD01EE
:102330009F77DF91CF91FF90EF90DF90CF90BF908C
:10234000AF909F908F9008958F929F92AF92BF927F
:10235000CF92DF92EF92FF926091000170910101A4
:10236000809102019091030161157105810591052C
:1023700021F464E279ED8BE597E02DE133EF41E064
:1023800050E00E94171149015A019B01AC01A7EAD4
:10239000B1E40E94F0146B017C01ACEEB4EFA50136
:1023A00094010E94FE14DC01CB018C0D9D1DAE1D1D
:1023B000BF1DB7FF03C00197A109B048809300017A
:1023C00090930101A0930201B0930301BC01CD01E0
:1023D0009F77FF90EF90DF90CF90BF90AF909F904E
:1023E0008F90089560930001709301018093020122
:1023F000909303010895CF93DF93EC012B8120FF8D
:1024000033C026FF0AC02F7B2B838E819F810196CC
:102410009F838E838A8190E029C022FF0FC0E881CC
:10242000F9818081082E000C990B009719F4206225
:102430002B831AC03196F983E8830EC0EA85FB85A9
:10244000099597FF09C02B81019611F080E201C028
:1024500080E1822B8B8308C02E813F812F5F3F4F0D
:102460003F832E83992702C08FEF9FEFDF91CF919B
:102470000895A0E0B0E0EFE3F2E10C941115AE0195
:10248000495F5F4FDA016D917D91AD010FE413E07B
:10249000F80182819381DC0113962C9113972860B7
:1024A00013962C930E945F12D8011296ED91FC9125
:1024B00013972381277F2383E4E00C942D15ABE051
:1024C000B0E0E5E6F2E10C9403156C017B018A01B2
:1024D000FC0117821682838181FFCCC1CE01019657
:1024E0003C01F6019381F70193FD859193FF819162
:1024F0007F01882309F4BAC1853239F493FD8591AF
:1025000093FF81917F01853229F4B60190E00E940A
:102510005614E7CF912C212C312CFFE1F315D8F084
:102520008B3279F038F4803279F08332A1F4232DA4
:1025300020611DC08D3261F0803369F4232D21604C
:1025400016C0832D8260382EE32DE4603E2E2AC013
:10255000F32DF8601DC037FC2DC020ED280F2A3068
:1025600040F08E32B9F436FC81C1232D2064322E26
:1025700019C036FE06C08AE0989E200D1124922EC6
:1025800011C0EAE02E9E200D1124222EF32DF062C0
:102590003F2E08C08C3621F4832D8068382E02C06F
:1025A000883641F4F70193FD859193FF81917F0176
:1025B0008111B3CF982F9F7D9554933028F40C5FF1
:1025C0001F4F9FE399830DC0833631F0833771F03D
:1025D000833509F059C021C0F801808189830E5FDD
:1025E0001F4F88248394912C530113C02801F2E0DB
:1025F0004F0E511CF801A080B18036FE03C0692D3A
:1026000070E002C06FEF7FEFC5010E944B144C01D8
:102610008201F32DFF773F2E16C0280122E0420EE3
:10262000511CF801A080B18036FE03C0692D70E016
:1026300002C06FEF7FEFC5010E9440144C01F32DE3
:10264000F0683F2E820133FC1BC0822D90E088167B
:102650009906B0F4B60180E290E00E9456142A94E4
:10266000F4CFF50137FC859137FE81915F01B6010A
:1026700090E00E94561421102A9421E0821A9108B9
:102680008114910471F7E8C0843611F0893641F560
:10269000F80137FE07C060817181828193810C5FF0
:1026A0001F4F08C060817181072E000C880B990BA9
:1026B0000E5F1F4FF32DFF763F2E97FF09C09095B9
:1026C0008095709561957F4F8F4F9F4FF0683F2E9B
:1026D0002AE030E0A3010E949214882E861845C09B
:1026E000853731F4232D2F7EB22E2AE030E025C02D
:1026F000932D997FB92E8F36C1F018F4883579F073
:10270000B5C0803719F0883721F0B0C0E92FE061FB
:10271000BE2EB4FE0DC0FB2DF460BF2E09C034FEEA
:102720000AC0292F2660B22E06C028E030E005C07E
:1027300020E130E002C020E132E0F801B7FE07C03E
:1027400060817181828193810C5F1F4F06C060811F
:10275000718180E090E00E5F1F4FA3010E949214F0
:10276000882E8618FB2DFF773F2E36FE0DC0232DB9
:102770002E7FA22E891458F434FE0BC032FC09C0FF
:10278000832D8E7EA82E05C0B82CA32C03C0B82C98
:1027900001C0B92CA4FE0FC0FE01E80DF11D80811F
:1027A000803321F49A2D997EA92E09C0A2FE06C07D
:1027B000B394B39404C08A2D867809F0B394A3FC33
:1027C00011C0A0FE06C0B21488F4280C922C9B18ED
:1027D0000EC0B21460F4B60180E290E00E9456147C
:1027E000B394F7CFB21418F42B1802C0982C212CF4
:1027F000A4FE10C0B60180E390E00E945614A2FE31
:1028000017C0A1FC03C088E790E002C088E590E013
:10281000B6010CC08A2D867859F0A1FE02C08BE269
:1028200001C080E2A7FC8DE2B60190E00E94561440
:10283000891438F4B60180E390E00E9456149A940B
:10284000F7CF8A94F301E80DF11D8081B60190E085
:102850000E9456148110F5CF222009F442CEB60111
:1028600080E290E00E9456142A94F6CFF601868109
:10287000978102C08FEF9FEF2B96E2E10C941F151A
:10288000FC010590615070400110D8F7809590953B
:102890008E0F9F1F0895FC01615070400190011040
:1028A000D8F7809590958E0F9F1F08950F931F93D3
:1028B000CF93DF93FB01238121FD03C08FEF9FEFB7
:1028C0002CC022FF16C046815781248135814217D2
:1028D000530744F4A081B1819D012F5F3F4F3183A5
:1028E00020838C93268137812F5F3F4F3783268348
:1028F00014C08B01EC01FB010084F185E02D0995EA
:10290000892BE1F6D80116968D919C911797019627
:1029100017969C938E931697CE01DF91CF911F91BE
:102920000F910895FA01AA27283051F1203181F141
:10293000E8946F936E7F6E5F7F4F8F4F9F4FAF4FC7
:10294000B1E03ED0B4E03CD0670F781F891F9A1FDA
:10295000A11D680F791F8A1F911DA11D6A0F711D8E
:10296000811D911DA11D20D009F468943F912AE09A
:10297000269F11243019305D3193DEF6CF01089582
:10298000462F4770405D4193B3E00FD0C9F7F6CFB3
:10299000462F4F70405D4A3318F0495D31FD40527B
:1029A000419302D0A9F7EACFB4E0A6959795879511
:1029B00077956795BA95C9F70097610571050895F0
:1029C0009B01AC010A2E069457954795379527959C
:1029D000BA95C9F7620F731F841F951FA01D089534
:1029E0000E943611A59F900DB49F900DA49F800D5D
:1029F000911D11240895B7FF0C94F0140E94F01457
:102A0000821B930B08952F923F924F925F926F9289
:102A10007F928F929F92AF92BF92CF92DF92EF926E
:102A2000FF920F931F93CF93DF93CDB7DEB7CA1BEF
:102A3000DB0B0FB6F894DEBF0FBECDBF09942A881A
:102A4000398848885F846E847D848C849B84AA84C2
:102A5000B984C884DF80EE80FD800C811B81AA814F
:102A6000B981CE0FD11D0FB6F894DEBF0FBECDBF1A
:082A7000ED010895F894FFCF79
:102A780001000000FF0501260149015D018801B838
:102A880001EE010F00000003000000009B0CD30CB6
:102A980000003F065B4F666D7D077F6F47414D45E0
:102AA800204F564552204E45524400474700415357
:102AB8005445524F494453204D415454484557209A
:102AC800425552544F4E2053343532393338363705
:102AD800007B009200A4009B009200B900AE009217
:102AE80000A4009B008A009B007400204E7B00928B
:102AF80000A4009B009200B900CF00C400B900AE4A
:102B080000B900AE007B00A40092000000A500A55B
:102B1800005300A5004D01A000F401BE007800A5F7
:102B2800004D01A500F401F401A500A5005300A57E
:102B3800004D01A0004D01A5004D01A500530090D6
:0A2B4800014D01A50020030000006C
:00000001FF
